{
  "_format": "hh-sol-artifact-1",
  "contractName": "AccessNFT",
  "sourceName": "contracts/AccessNFT.sol",
  "abi": [
    {
      "inputs": [
        {
          "internalType": "address",
          "name": "initialOwner",
          "type": "address"
        },
        {
          "internalType": "address",
          "name": "_liquidityWallet",
          "type": "address"
        },
        {
          "internalType": "address",
          "name": "_treasuryWallet",
          "type": "address"
        }
      ],
      "stateMutability": "nonpayable",
      "type": "constructor"
    },
    {
      "inputs": [
        {
          "internalType": "address",
          "name": "sender",
          "type": "address"
        },
        {
          "internalType": "uint256",
          "name": "tokenId",
          "type": "uint256"
        },
        {
          "internalType": "address",
          "name": "owner",
          "type": "address"
        }
      ],
      "name": "ERC721IncorrectOwner",
      "type": "error"
    },
    {
      "inputs": [
        {
          "internalType": "address",
          "name": "operator",
          "type": "address"
        },
        {
          "internalType": "uint256",
          "name": "tokenId",
          "type": "uint256"
        }
      ],
      "name": "ERC721InsufficientApproval",
      "type": "error"
    },
    {
      "inputs": [
        {
          "internalType": "address",
          "name": "approver",
          "type": "address"
        }
      ],
      "name": "ERC721InvalidApprover",
      "type": "error"
    },
    {
      "inputs": [
        {
          "internalType": "address",
          "name": "operator",
          "type": "address"
        }
      ],
      "name": "ERC721InvalidOperator",
      "type": "error"
    },
    {
      "inputs": [
        {
          "internalType": "address",
          "name": "owner",
          "type": "address"
        }
      ],
      "name": "ERC721InvalidOwner",
      "type": "error"
    },
    {
      "inputs": [
        {
          "internalType": "address",
          "name": "receiver",
          "type": "address"
        }
      ],
      "name": "ERC721InvalidReceiver",
      "type": "error"
    },
    {
      "inputs": [
        {
          "internalType": "address",
          "name": "sender",
          "type": "address"
        }
      ],
      "name": "ERC721InvalidSender",
      "type": "error"
    },
    {
      "inputs": [
        {
          "internalType": "uint256",
          "name": "tokenId",
          "type": "uint256"
        }
      ],
      "name": "ERC721NonexistentToken",
      "type": "error"
    },
    {
      "inputs": [
        {
          "internalType": "address",
          "name": "owner",
          "type": "address"
        }
      ],
      "name": "OwnableInvalidOwner",
      "type": "error"
    },
    {
      "inputs": [
        {
          "internalType": "address",
          "name": "account",
          "type": "address"
        }
      ],
      "name": "OwnableUnauthorizedAccount",
      "type": "error"
    },
    {
      "inputs": [],
      "name": "ReentrancyGuardReentrantCall",
      "type": "error"
    },
    {
      "anonymous": false,
      "inputs": [
        {
          "indexed": true,
          "internalType": "address",
          "name": "owner",
          "type": "address"
        },
        {
          "indexed": true,
          "internalType": "address",
          "name": "approved",
          "type": "address"
        },
        {
          "indexed": true,
          "internalType": "uint256",
          "name": "tokenId",
          "type": "uint256"
        }
      ],
      "name": "Approval",
      "type": "event"
    },
    {
      "anonymous": false,
      "inputs": [
        {
          "indexed": true,
          "internalType": "address",
          "name": "owner",
          "type": "address"
        },
        {
          "indexed": true,
          "internalType": "address",
          "name": "operator",
          "type": "address"
        },
        {
          "indexed": false,
          "internalType": "bool",
          "name": "approved",
          "type": "bool"
        }
      ],
      "name": "ApprovalForAll",
      "type": "event"
    },
    {
      "anonymous": false,
      "inputs": [
        {
          "indexed": true,
          "internalType": "address",
          "name": "to",
          "type": "address"
        },
        {
          "indexed": false,
          "internalType": "uint256",
          "name": "tokenId",
          "type": "uint256"
        }
      ],
      "name": "Minted",
      "type": "event"
    },
    {
      "anonymous": false,
      "inputs": [
        {
          "indexed": true,
          "internalType": "address",
          "name": "previousOwner",
          "type": "address"
        },
        {
          "indexed": true,
          "internalType": "address",
          "name": "newOwner",
          "type": "address"
        }
      ],
      "name": "OwnershipTransferred",
      "type": "event"
    },
    {
      "anonymous": false,
      "inputs": [
        {
          "indexed": true,
          "internalType": "address",
          "name": "from",
          "type": "address"
        },
        {
          "indexed": true,
          "internalType": "address",
          "name": "to",
          "type": "address"
        },
        {
          "indexed": true,
          "internalType": "uint256",
          "name": "tokenId",
          "type": "uint256"
        }
      ],
      "name": "Transfer",
      "type": "event"
    },
    {
      "anonymous": false,
      "inputs": [
        {
          "indexed": true,
          "internalType": "address",
          "name": "user",
          "type": "address"
        },
        {
          "indexed": false,
          "internalType": "bool",
          "name": "status",
          "type": "bool"
        }
      ],
      "name": "WhitelistUpdated",
      "type": "event"
    },
    {
      "inputs": [],
      "name": "MAX_SUPPLY",
      "outputs": [
        {
          "internalType": "uint256",
          "name": "",
          "type": "uint256"
        }
      ],
      "stateMutability": "view",
      "type": "function"
    },
    {
      "inputs": [],
      "name": "MINT_PRICE",
      "outputs": [
        {
          "internalType": "uint256",
          "name": "",
          "type": "uint256"
        }
      ],
      "stateMutability": "view",
      "type": "function"
    },
    {
      "inputs": [
        {
          "internalType": "address[]",
          "name": "users",
          "type": "address[]"
        }
      ],
      "name": "addToWhitelist",
      "outputs": [],
      "stateMutability": "nonpayable",
      "type": "function"
    },
    {
      "inputs": [
        {
          "internalType": "address",
          "name": "to",
          "type": "address"
        },
        {
          "internalType": "uint256",
          "name": "tokenId",
          "type": "uint256"
        }
      ],
      "name": "approve",
      "outputs": [],
      "stateMutability": "nonpayable",
      "type": "function"
    },
    {
      "inputs": [
        {
          "internalType": "address",
          "name": "owner",
          "type": "address"
        }
      ],
      "name": "balanceOf",
      "outputs": [
        {
          "internalType": "uint256",
          "name": "",
          "type": "uint256"
        }
      ],
      "stateMutability": "view",
      "type": "function"
    },
    {
      "inputs": [
        {
          "internalType": "uint256",
          "name": "tokenId",
          "type": "uint256"
        }
      ],
      "name": "getApproved",
      "outputs": [
        {
          "internalType": "address",
          "name": "",
          "type": "address"
        }
      ],
      "stateMutability": "view",
      "type": "function"
    },
    {
      "inputs": [
        {
          "internalType": "address",
          "name": "owner",
          "type": "address"
        },
        {
          "internalType": "address",
          "name": "operator",
          "type": "address"
        }
      ],
      "name": "isApprovedForAll",
      "outputs": [
        {
          "internalType": "bool",
          "name": "",
          "type": "bool"
        }
      ],
      "stateMutability": "view",
      "type": "function"
    },
    {
      "inputs": [],
      "name": "liquidityWallet",
      "outputs": [
        {
          "internalType": "address",
          "name": "",
          "type": "address"
        }
      ],
      "stateMutability": "view",
      "type": "function"
    },
    {
      "inputs": [],
      "name": "mint",
      "outputs": [],
      "stateMutability": "payable",
      "type": "function"
    },
    {
      "inputs": [],
      "name": "name",
      "outputs": [
        {
          "internalType": "string",
          "name": "",
          "type": "string"
        }
      ],
      "stateMutability": "view",
      "type": "function"
    },
    {
      "inputs": [],
      "name": "owner",
      "outputs": [
        {
          "internalType": "address",
          "name": "",
          "type": "address"
        }
      ],
      "stateMutability": "view",
      "type": "function"
    },
    {
      "inputs": [
        {
          "internalType": "uint256",
          "name": "tokenId",
          "type": "uint256"
        }
      ],
      "name": "ownerOf",
      "outputs": [
        {
          "internalType": "address",
          "name": "",
          "type": "address"
        }
      ],
      "stateMutability": "view",
      "type": "function"
    },
    {
      "inputs": [
        {
          "internalType": "address[]",
          "name": "users",
          "type": "address[]"
        }
      ],
      "name": "removeFromWhitelist",
      "outputs": [],
      "stateMutability": "nonpayable",
      "type": "function"
    },
    {
      "inputs": [],
      "name": "renounceOwnership",
      "outputs": [],
      "stateMutability": "nonpayable",
      "type": "function"
    },
    {
      "inputs": [
        {
          "internalType": "address",
          "name": "from",
          "type": "address"
        },
        {
          "internalType": "address",
          "name": "to",
          "type": "address"
        },
        {
          "internalType": "uint256",
          "name": "tokenId",
          "type": "uint256"
        }
      ],
      "name": "safeTransferFrom",
      "outputs": [],
      "stateMutability": "nonpayable",
      "type": "function"
    },
    {
      "inputs": [
        {
          "internalType": "address",
          "name": "from",
          "type": "address"
        },
        {
          "internalType": "address",
          "name": "to",
          "type": "address"
        },
        {
          "internalType": "uint256",
          "name": "tokenId",
          "type": "uint256"
        },
        {
          "internalType": "bytes",
          "name": "data",
          "type": "bytes"
        }
      ],
      "name": "safeTransferFrom",
      "outputs": [],
      "stateMutability": "nonpayable",
      "type": "function"
    },
    {
      "inputs": [
        {
          "internalType": "address",
          "name": "operator",
          "type": "address"
        },
        {
          "internalType": "bool",
          "name": "approved",
          "type": "bool"
        }
      ],
      "name": "setApprovalForAll",
      "outputs": [],
      "stateMutability": "nonpayable",
      "type": "function"
    },
    {
      "inputs": [
        {
          "internalType": "bool",
          "name": "_active",
          "type": "bool"
        }
      ],
      "name": "setWhitelistActive",
      "outputs": [],
      "stateMutability": "nonpayable",
      "type": "function"
    },
    {
      "inputs": [
        {
          "internalType": "bytes4",
          "name": "interfaceId",
          "type": "bytes4"
        }
      ],
      "name": "supportsInterface",
      "outputs": [
        {
          "internalType": "bool",
          "name": "",
          "type": "bool"
        }
      ],
      "stateMutability": "view",
      "type": "function"
    },
    {
      "inputs": [],
      "name": "symbol",
      "outputs": [
        {
          "internalType": "string",
          "name": "",
          "type": "string"
        }
      ],
      "stateMutability": "view",
      "type": "function"
    },
    {
      "inputs": [
        {
          "internalType": "uint256",
          "name": "tokenId",
          "type": "uint256"
        }
      ],
      "name": "tokenURI",
      "outputs": [
        {
          "internalType": "string",
          "name": "",
          "type": "string"
        }
      ],
      "stateMutability": "view",
      "type": "function"
    },
    {
      "inputs": [
        {
          "internalType": "address",
          "name": "from",
          "type": "address"
        },
        {
          "internalType": "address",
          "name": "to",
          "type": "address"
        },
        {
          "internalType": "uint256",
          "name": "tokenId",
          "type": "uint256"
        }
      ],
      "name": "transferFrom",
      "outputs": [],
      "stateMutability": "nonpayable",
      "type": "function"
    },
    {
      "inputs": [
        {
          "internalType": "address",
          "name": "newOwner",
          "type": "address"
        }
      ],
      "name": "transferOwnership",
      "outputs": [],
      "stateMutability": "nonpayable",
      "type": "function"
    },
    {
      "inputs": [],
      "name": "treasuryWallet",
      "outputs": [
        {
          "internalType": "address",
          "name": "",
          "type": "address"
        }
      ],
      "stateMutability": "view",
      "type": "function"
    },
    {
      "inputs": [
        {
          "internalType": "address",
          "name": "",
          "type": "address"
        }
      ],
      "name": "whitelist",
      "outputs": [
        {
          "internalType": "bool",
          "name": "",
          "type": "bool"
        }
      ],
      "stateMutability": "view",
      "type": "function"
    },
    {
      "inputs": [],
      "name": "whitelistActive",
      "outputs": [
        {
          "internalType": "bool",
          "name": "",
          "type": "bool"
        }
      ],
      "stateMutability": "view",
      "type": "function"
    }
  ],
  "bytecode": "0x60806040523461040257612a2f6060813803918261001c81610406565b938492833981010312610402576100328161042b565b9061004b60406100446020840161042b565b920161042b565b6100556040610406565b92601384527f4e657875732054726164652047656e6573697300000000000000000000000000602085015261008a6040610406565b6006815265272c2a23a2a760d11b6020820152845190946001600160401b038211610309575f5490600182811c921680156103f8575b60208310146102eb5781601f84931161038b575b50602090601f8311600114610328575f9261031d575b50508160011b915f199060031b1c1916175f555b83516001600160401b03811161030957600154600181811c911680156102ff575b60208210146102eb57601f8111610288575b50602094601f8211600114610225579481929394955f9261021a575b50508160011b915f199060031b1c1916176001555b6001600160a01b031691821561020757600680546001600160a01b03198116851790915560405193906001600160a01b03167f8be0079c531659141344cd1fd0a4f28419497f9722a3daafe3b4186f6b6457e05f80a360016007819055600c805460ff19169091179055600980546001600160a01b039283166001600160a01b031991821617909155600a80549390921692169190911790556125ef90816104408239f35b631e4fbdf760e01b5f525f60045260245ffd5b015190505f8061014d565b601f1982169560015f52805f20915f5b88811061027057508360019596979810610258575b505050811b01600155610162565b01515f1960f88460031b161c191690555f808061024a565b91926020600181928685015181550194019201610235565b60015f527fb10e2d527612073b26eecdfd717e6a320cf44b4afac2b0732d9fcbe2b7fa0cf6601f830160051c810191602084106102e1575b601f0160051c01905b8181106102d65750610131565b5f81556001016102c9565b90915081906102c0565b634e487b7160e01b5f52602260045260245ffd5b90607f169061011f565b634e487b7160e01b5f52604160045260245ffd5b015190505f806100ea565b5f8080528281209350601f198516905b818110610373575090846001959493921061035b575b505050811b015f556100fe565b01515f1960f88460031b161c191690555f808061034e565b92936020600181928786015181550195019301610338565b5f80529091507f290decd9548b62a8d60345a988386fc84ba6bc95484008f6362f93160ef3e563601f840160051c810191602085106103ee575b90601f859493920160051c01905b8181106103e057506100d4565b5f81558493506001016103d3565b90915081906103c5565b91607f16916100c0565b5f80fd5b6040519190601f01601f191682016001600160401b0381118382101761030957604052565b51906001600160a01b03821682036104025756fe6080806040526004361015610012575f80fd5b5f3560e01c90816301ffc9a714611de45750806302ce581314611dc257806306fdde0314611d0a578063081812fc14611cce578063095ea7b314611be45780631249c58b146117c157806323b872dd146117aa57806332cb6b0c1461178e57806342842e0e1461175f5780634626402b14611737578063548db174146116a35780636352211e1461167357806370a0823114611622578063715018a6146115c75780637f6497831461152c5780638da5cb5b1461150457806395d89b41146114105780639b19251a146113d3578063a22cb46514611338578063b88d4fde146112a2578063c002d23d14611280578063c3b754dc14611248578063c87b56dd14610243578063d46980161461021b578063e985e9c5146101c45763f2fde38b1461013a575f80fd5b346101c05760203660031901126101c057610153611e73565b61015b6121a7565b6001600160a01b031680156101ad57600680546001600160a01b0319811683179091556001600160a01b03167f8be0079c531659141344cd1fd0a4f28419497f9722a3daafe3b4186f6b6457e05f80a3005b631e4fbdf760e01b5f525f60045260245ffd5b5f80fd5b346101c05760403660031901126101c0576101dd611e73565b6101e5611e89565b9060018060a01b03165f52600560205260405f209060018060a01b03165f52602052602060ff60405f2054166040519015158152f35b346101c0575f3660031901126101c0576009546040516001600160a01b039091168152602090f35b346101c05760203660031901126101c0576112446020611230603d6111e5836111e0609760a583603981610fd5610fcf60043561027f81612173565b50610fca60e46109326102918461230f565b604051998a917f3c7376672077696474683d2234303022206865696768743d2236303022207669828401527f6577426f783d2230203020343030203630302220786d6c6e733d22687474703a60408401527f2f2f7777772e77332e6f72672f323030302f737667223e0000000000000000006060840152651e3232b3399f60d11b60778401527f3c6c696e6561724772616469656e742069643d227261696e626f77222078313d607d8401527f223025222079313d223025222078323d2231303025222079323d223130302522609d840152601f60f91b60bd8401527f3c73746f70206f66667365743d22302522207374796c653d2273746f702d636f60be8401527f6c6f723a234646364236423b73746f702d6f7061636974793a302e3822202f3e60de8401527f3c73746f70206f66667365743d2231362522207374796c653d2273746f702d6360fe8401527f6f6c6f723a233445434443343b73746f702d6f7061636974793a302e3822202f61011e840152601f60f91b61013e8401527f3c73746f70206f66667365743d2233332522207374796c653d2273746f702d6361013f8401527f6f6c6f723a233435423744313b73746f702d6f7061636974793a302e3822202f61015f840152601f60f91b61017f8401527f3c73746f70206f66667365743d2235302522207374796c653d2273746f702d636101808401527f6f6c6f723a233936434542343b73746f702d6f7061636974793a302e3822202f6101a0840152601f60f91b6101c08401527f3c73746f70206f66667365743d2236362522207374796c653d2273746f702d636101c18401527f6f6c6f723a234646454141373b73746f702d6f7061636974793a302e3822202f6101e1840152601f60f91b6102018401527f3c73746f70206f66667365743d2238332522207374796c653d2273746f702d636102028401527f6f6c6f723a234444413044443b73746f702d6f7061636974793a302e3822202f610222840152601f60f91b6102428401527f3c73746f70206f66667365743d223130302522207374796c653d2273746f702d6102438401527f636f6c6f723a234646364236423b73746f702d6f7061636974793a302e38222061026384015261179f60f11b610283840152701e17b634b732b0b923b930b234b2b73a1f60791b6102858401527f3c6c696e6561724772616469656e742069643d227368696d6d6572222078313d6102968401527f223025222079313d223025222078323d2231303025222079323d2231303025226102b6840152601f60f91b6102d68401527f3c73746f70206f66667365743d22302522207374796c653d2273746f702d636f6102d78401527f6c6f723a72676261283235352c3235352c3235352c30293b73746f702d6f70616102f78401526931b4ba3c9d181110179f60b11b6103178401527f3c73746f70206f66667365743d2235302522207374796c653d2273746f702d636103218401527f6f6c6f723a72676261283235352c3235352c3235352c302e38293b73746f702d6103418401526e37b830b1b4ba3c9d18171c1110179f60891b6103618401527f3c73746f70206f66667365743d223130302522207374796c653d2273746f702d6103708401527f636f6c6f723a72676261283235352c3235352c3235352c30293b73746f702d6f6103908401526b3830b1b4ba3c9d181110179f60a11b6103b0840152701e17b634b732b0b923b930b234b2b73a1f60791b6103bc8401527f3c6c696e6561724772616469656e742069643d226d6574616c6c6963222078316103cd8401527f3d223025222079313d223025222078323d2231303025222079323d22313030256103ed84015261111f60f11b61040d8401527f3c73746f70206f66667365743d22302522207374796c653d2273746f702d636f61040f8401527f6c6f723a233262326232623b73746f702d6f7061636974793a3122202f3e000061042f8401527f3c73746f70206f66667365743d2233302522207374796c653d2273746f702d6361044d8401527f6f6c6f723a233461346134613b73746f702d6f7061636974793a3122202f3e0061046d8401527f3c73746f70206f66667365743d2237302522207374796c653d2273746f702d6361048c8401527f6f6c6f723a233262326232623b73746f702d6f7061636974793a3122202f3e006104ac8401527f3c73746f70206f66667365743d223130302522207374796c653d2273746f702d6104cb8401527f636f6c6f723a233161316131613b73746f702d6f7061636974793a3122202f3e6104eb840152701e17b634b732b0b923b930b234b2b73a1f60791b61050b8401527f3c66696c7465722069643d22676c6f77223e3c6665476175737369616e426c7561051c8401527f7220737464446576696174696f6e3d22322e352220726573756c743d22636f6c61053c8401527f6f726564426c7572222f3e3c66654d657267653e3c66654d657267654e6f646561055c8401527f20696e3d22636f6c6f726564426c7572222f3e3c66654d657267654e6f64652061057c8401527f696e3d22536f7572636547726170686963222f3e3c2f66654d657267653e3c2f61059c840152663334b63a32b91f60c91b6105bc840152661e17b232b3399f60c91b6105c38401527f3c7265637420783d2231302220793d223130222077696474683d2233383022206105ca8401527f6865696768743d22353830222072783d223230222066696c6c3d2275726c28236105ea8401527f6d6574616c6c69632922207374726f6b653d2275726c28237261696e626f772961060a84015274111039ba3937b5b296bbb4b23a341e911a1110179f60591b61062a8401527f3c7265637420783d2232302220793d223230222077696474683d22333630222061063f8401527f6865696768743d22353630222072783d223135222066696c6c3d2275726c282361065f8401527f7261696e626f772922206f7061636974793d22302e313522202f3e000000000061067f8401527f3c7265637420783d2232302220793d223230222077696474683d22333630222061069a8401527f6865696768743d22353630222072783d223135222066696c6c3d2275726c28236106ba8401527f7368696d6d65722922206f7061636974793d22302e3322202f3e0000000000006106da8401527f3c7465787420783d223230302220793d2238302220666f6e742d66616d696c796106f48401527f3d22417269616c2220666f6e742d7765696768743d22626f6c642220666f6e746107148401527f2d73697a653d223238222066696c6c3d2275726c28237261696e626f772922206107348401527f746578742d616e63686f723d226d6964646c65222066696c7465723d2275726c6107548401527f2823676c6f7729223e4e455855532047454e455349533c2f746578743e0000006107748401527f3c636972636c652063783d22323030222063793d223235302220723d223830226107918401527f2066696c6c3d226e6f6e6522207374726f6b653d2275726c28237261696e626f6107b18401527f772922207374726f6b652d77696474683d223222206f7061636974793d22302e6107d1840152641a9110179f60d91b6107f18401527f3c636972636c652063783d22323030222063793d223235302220723d223730226107f68401527f2066696c6c3d226e6f6e6522207374726f6b653d2275726c28237261696e626f6108168401527f772922207374726f6b652d77696474683d223122206f7061636974793d22302e61083684015264199110179f60d91b6108568401527f3c7465787420783d223230302220793d223237302220666f6e742d73697a653d61085b8401527f2238302220746578742d616e63686f723d226d6964646c65222066696c6c3d2261087b8401526e3bb434ba32911f271e17ba32bc3a1f60891b61089b8401527f3c7465787420783d223230302220793d223430302220666f6e742d66616d696c6108aa8401527f793d22436f7572696572204e65772220666f6e742d7765696768743d22626f6c6108ca8401527f642220666f6e742d73697a653d223438222066696c6c3d2277686974652220746108ea8401527f6578742d616e63686f723d226d6964646c6522206c65747465722d737061636961090a840152676e673d2234223e2360c01b61092a8401528051918291018484015e8101661e17ba32bc3a1f60c91b838201527f3c7265637420783d2235302220793d22343530222077696474683d22333030226109398201527f206865696768743d2232222066696c6c3d2275726c28237261696e626f772922610959820152701037b830b1b4ba3c9e9118171a9110179f60791b6109798201527f3c7465787420783d223230302220793d223439302220666f6e742d66616d696c61098a8201527f793d22417269616c2220666f6e742d73697a653d223138222066696c6c3d22236109aa8201527f3030424344342220746578742d616e63686f723d226d6964646c6522206c65746109ca8201527f7465722d73706163696e673d2232223e464f554e4445522045444954494f4e3c6109ea8201526517ba32bc3a1f60d11b610a0a820152651e17b9bb339f60d11b610a10820152030160c4810189520187611f2d565b61230f565b93612457565b6040519788947f7b226e616d65223a20224e657875732047656e65736973202300000000000000828701528051918291018587015e84019061088b60f21b848301527f226465736372697074696f6e223a20224e657875732054726164652047656e65603b8301527f73697320506173732e204772616e7473206c69666574696d6520616363657373605b8301527f20746f207072656d69756d20616e616c79746963732c203278207374616b696e607b8301527f6720726577617264732c20616e6420726576656e75652073686172652e222c00609b8301527f22696d616765223a2022646174613a696d6167652f7376672b786d6c3b62617360ba83015263194d8d0b60e21b60da83015280519283910160de83015e010161088b60f21b838201526e2261747472696275746573223a205b60881b60a78201527f7b2274726169745f74797065223a202254696572222c202276616c7565223a2060b68201526a0891d95b995cda5cc89f4b60aa1b60d68201527f7b2274726169745f74797065223a2022416363657373204c6576656c222c202260e18201526e1d985b1d59488e88088c4c0c089f4b608a1b6101018201527f7b2274726169745f74797065223a202254797065222c202276616c7565223a206101108201526922466f756e646572227d60b01b610130820152615d7d60f01b61013a82015203016077810184520182611f2d565b612457565b6040519384917f646174613a6170706c69636174696f6e2f6a736f6e3b6261736536342c000000828401528051918291018484015e81015f838201520301601f198101835282611f2d565b604051918291602083526020830190611e4f565b0390f35b346101c05760203660031901126101c0576004358015158091036101c05761126e6121a7565b60ff8019600c5416911617600c555f80f35b346101c0575f3660031901126101c057602060405167016345785d8a00008152f35b346101c05760803660031901126101c0576112bb611e73565b6112c3611e89565b906044356064359267ffffffffffffffff84116101c057366023850112156101c0578360040135926112f484611f63565b936113026040519586611f2d565b80855236602482880101116101c0576020815f92602461133699018389013786010152611330838383611fae565b336121ce565b005b346101c05760403660031901126101c057611351611e73565b602435908115158092036101c0576001600160a01b03169081156113c057335f52600560205260405f20825f5260205260405f2060ff1981541660ff83161790556040519081527f17307eab39ab6107e8899845ad3d59bd9653f200f220920489ca2b5937696c3160203392a3005b50630b61174360e31b5f5260045260245ffd5b346101c05760203660031901126101c0576001600160a01b036113f4611e73565b165f52600b602052602060ff60405f2054166040519015158152f35b346101c0575f3660031901126101c0576040515f6001548060011c906001811680156114fa575b6020831081146114e6578285529081156114c25750600114611464575b6112448361123081850382611f2d565b91905060015f527fb10e2d527612073b26eecdfd717e6a320cf44b4afac2b0732d9fcbe2b7fa0cf6915f905b8082106114a857509091508101602001611230611454565b919260018160209254838588010152019101909291611490565b60ff191660208086019190915291151560051b840190910191506112309050611454565b634e487b7160e01b5f52602260045260245ffd5b91607f1691611437565b346101c0575f3660031901126101c0576006546040516001600160a01b039091168152602090f35b346101c05761153a36611ed9565b906115436121a7565b5f5b82811061154e57005b6001906001600160a01b0361156c61156783878761213b565b61215f565b165f52600b60205260405f208260ff19825416179055818060a01b0361159661156783878761213b565b167ff93f9a76c1bf3444d22400a00cb9fe990e6abe9dbb333fda48859cfee864543d6020604051858152a201611545565b346101c0575f3660031901126101c0576115df6121a7565b600680546001600160a01b031981169091555f906001600160a01b03167f8be0079c531659141344cd1fd0a4f28419497f9722a3daafe3b4186f6b6457e08280a3005b346101c05760203660031901126101c0576001600160a01b03611643611e73565b168015611660575f526003602052602060405f2054604051908152f35b6322718ad960e21b5f525f60045260245ffd5b346101c05760203660031901126101c0576020611691600435612173565b6040516001600160a01b039091168152f35b346101c0576116b136611ed9565b906116ba6121a7565b5f5b8281106116c557005b6001906001600160a01b036116de61156783878761213b565b165f52600b60205260405f2060ff198154169055818060a01b0361170661156783878761213b565b167ff93f9a76c1bf3444d22400a00cb9fe990e6abe9dbb333fda48859cfee864543d60206040515f8152a2016116bc565b346101c0575f3660031901126101c057600a546040516001600160a01b039091168152602090f35b346101c05761133661177036611e9f565b9060405192611780602085611f2d565b5f8452611330838383611fae565b346101c0575f3660031901126101c05760206040516103e88152f35b346101c0576113366117bb36611e9f565b91611fae565b5f3660031901126101c057600260075414611bd55760026007556008546103e8811015611b9b5767016345785d8a00003410611b5e5760ff600c5416611b13575b5f198114611aff576001810160085560206040516118208282611f2d565b5f81523315611aec575f8381526002835260409020546001600160a01b03168015159081611abb575b335f8181526003865260408082208054600101905587825260028752812080546001600160a01b0319168317905586919083907fddf252ad1be2c89b69c2b068fc378daa952ba7f163c4a11628f55a4df523b3ef9080a450611aa85781333b6119c4575b50505f8080803460011c60018060a01b03600954165af16118cc611f7f565b5015611974575f80808060018060a01b03600a541647905af16118ed611f7f565b5015611925577f30385c845b448a36257a6a1716e6ad2e1bc2cbe333cde1e69fe849ad6511adfe906040519283523392a26001600755005b6084906040519062461bcd60e51b82526004820152602260248201527f5472616e7366657220746f2074726561737572792077616c6c6574206661696c604482015261195960f21b6064820152fd5b6084906040519062461bcd60e51b82526004820152602360248201527f5472616e7366657220746f206c69717569646974792077616c6c6574206661696044820152621b195960ea1b6064820152fd5b6119fc9160405180938192630a85bd0160e11b83523360048401525f6024840152876044840152608060648401526084830190611e4f565b03815f335af15f9181611a68575b50611a375750611a18611f7f565b8051919082611a3457633250574960e11b5f523360045260245ffd5b01fd5b6001600160e01b03191663757a42ff60e11b01611a555782816118ad565b633250574960e11b5f523360045260245ffd5b9091508281813d8311611aa1575b611a808183611f2d565b810103126101c057516001600160e01b0319811681036101c0579084611a0a565b503d611a76565b6339e3563760e11b5f525f60045260245ffd5b5f8581526004602052604080822080546001600160a01b031916905582825260038652902080545f19019055611849565b633250574960e11b5f525f60045260245ffd5b634e487b7160e01b5f52601160045260245ffd5b335f52600b60205260ff60405f2054166118025760405162461bcd60e51b815260206004820152600f60248201526e139bdd081dda1a5d195b1a5cdd1959608a1b6044820152606490fd5b60405162461bcd60e51b8152602060048201526015602482015274125b9cdd59999a58da595b9d08115512081cd95b9d605a1b6044820152606490fd5b60405162461bcd60e51b815260206004820152601260248201527113585e081cdd5c1c1b1e481c995858da195960721b6044820152606490fd5b633ee5aeb560e01b5f5260045ffd5b346101c05760403660031901126101c057611bfd611e73565b602435611c0981612173565b33151580611cbb575b80611c8e575b611c7b5781906001600160a01b0384811691167f8c5be1e5ebec7d5bd14f71427d1e84f3dd0314c0f7b2291e5b200ac8c7c3b9255f80a45f90815260046020526040902080546001600160a01b0319166001600160a01b03909216919091179055005b63a9fbf51f60e01b5f523360045260245ffd5b506001600160a01b0381165f90815260056020908152604080832033845290915290205460ff1615611c18565b506001600160a01b038116331415611c12565b346101c05760203660031901126101c057600435611ceb81612173565b505f526004602052602060018060a01b0360405f205416604051908152f35b346101c0575f3660031901126101c0576040515f5f548060011c90600181168015611db8575b6020831081146114e6578285529081156114c25750600114611d5c576112448361123081850382611f2d565b5f8080527f290decd9548b62a8d60345a988386fc84ba6bc95484008f6362f93160ef3e563939250905b808210611d9e57509091508101602001611230611454565b919260018160209254838588010152019101909291611d86565b91607f1691611d30565b346101c0575f3660031901126101c057602060ff600c54166040519015158152f35b346101c05760203660031901126101c0576004359063ffffffff60e01b82168092036101c0576020916380ac58cd60e01b8114908115611e3e575b8115611e2d575b5015158152f35b6301ffc9a760e01b14905083611e26565b635b5e139f60e01b81149150611e1f565b805180835260209291819084018484015e5f828201840152601f01601f1916010190565b600435906001600160a01b03821682036101c057565b602435906001600160a01b03821682036101c057565b60609060031901126101c0576004356001600160a01b03811681036101c057906024356001600160a01b03811681036101c0579060443590565b9060206003198301126101c05760043567ffffffffffffffff81116101c057826023820112156101c05780600401359267ffffffffffffffff84116101c05760248460051b830101116101c0576024019190565b90601f8019910116810190811067ffffffffffffffff821117611f4f57604052565b634e487b7160e01b5f52604160045260245ffd5b67ffffffffffffffff8111611f4f57601f01601f191660200190565b3d15611fa9573d90611f9082611f63565b91611f9e6040519384611f2d565b82523d5f602084013e565b606090565b6001600160a01b0390911691908215611aec575f828152600260205260409020546001600160a01b0316928290331515806120a6575b5084612073575b805f52600360205260405f2060018154019055815f52600260205260405f20816bffffffffffffffffffffffff60a01b825416179055847fddf252ad1be2c89b69c2b068fc378daa952ba7f163c4a11628f55a4df523b3ef5f80a46001600160a01b031680830361205b57505050565b6364283d7b60e01b5f5260045260245260445260645ffd5b5f82815260046020526040902080546001600160a01b0319169055845f52600360205260405f205f198154019055611feb565b909150806120ea575b156120bc5782905f611fe4565b82846120d457637e27328960e01b5f5260045260245ffd5b63177e802f60e01b5f523360045260245260445ffd5b503384148015612119575b806120af57505f838152600460205260409020546001600160a01b031633146120af565b505f84815260056020908152604080832033845290915290205460ff166120f5565b919081101561214b5760051b0190565b634e487b7160e01b5f52603260045260245ffd5b356001600160a01b03811681036101c05790565b5f818152600260205260409020546001600160a01b0316908115612195575090565b637e27328960e01b5f5260045260245ffd5b6006546001600160a01b031633036121bb57565b63118cdaa760e01b5f523360045260245ffd5b823b6121dc575b5050505050565b604051630a85bd0160e11b81526001600160a01b039182166004820152918116602483015260448201939093526080606482015291169160209082908190612228906084830190611e4f565b03815f865af15f9181612298575b506122645750612244611f7f565b8051908161225f5782633250574960e11b5f5260045260245ffd5b602001fd5b6001600160e01b03191663757a42ff60e11b0161228657505f808080806121d5565b633250574960e11b5f5260045260245ffd5b9091506020813d6020116122d5575b816122b460209383611f2d565b810103126101c057516001600160e01b0319811681036101c057905f612236565b3d91506122a7565b906122e782611f63565b6122f46040519182611f2d565b8281528092612305601f1991611f63565b0190602036910137565b805f9172184f03e93ff9f4daa797ed6e38ed64bf6a1f0160401b821015612434575b806d04ee2d6d415b85acef8100000000600a921015612419575b662386f26fc10000811015612405575b6305f5e1008110156123f4575b6127108110156123e5575b60648110156123d7575b10156123cc575b600a6021612394600185016122dd565b938401015b5f1901916f181899199a1a9b1b9c1cb0b131b232b360811b8282061a83530480156123c757600a9091612399565b505090565b600190910190612384565b60646002910493019261237d565b61271060049104930192612373565b6305f5e10060089104930192612368565b662386f26fc100006010910493019261235b565b6d04ee2d6d415b85acef81000000006020910493019261234b565b506040915072184f03e93ff9f4daa797ed6e38ed64bf6a1f0160401b8104612331565b6040516124be91612469606083611f2d565b604082527f4142434445464748494a4b4c4d4e4f505152535455565758595a61626364656660208301527f6768696a6b6c6d6e6f707172737475767778797a303132333435363738392b2f60408301526124c1565b90565b9190918051156125a257805160028101809111611aff5760039004600281901b906001600160fe1b03811603611aff576124fa906122dd565b90602082019080815182019560208701908151925f83525b888110612554575050600393949596505251068060011461254257600214612538575090565b603d905f19015390565b50603d90815f19820153600119015390565b600360049199969901986001603f8b5182828260121c16870101518453828282600c1c16870101518385015382828260061c1687010151600285015316840101516003820153019497612512565b5090506040516125b3602082611f2d565b5f81529056fea2646970667358221220fa4f03d235d4d8d7c2744ce60d3181f7727b6ef8756a101af1e7e13d65ef644b64736f6c634300081c0033",
  "linkReferences": {},
  "deployedLinkReferences": {}
}