{
  "_format": "hh-sol-artifact-1",
  "contractName": "Challenge",
  "sourceName": "contracts/Challenge.sol",
  "abi": [
    {
      "inputs": [
        {
          "internalType": "address",
          "name": "_rewardToken",
          "type": "address"
        }
      ],
      "stateMutability": "nonpayable",
      "type": "constructor"
    },
    {
      "inputs": [
        {
          "internalType": "address",
          "name": "owner",
          "type": "address"
        }
      ],
      "name": "OwnableInvalidOwner",
      "type": "error"
    },
    {
      "inputs": [
        {
          "internalType": "address",
          "name": "account",
          "type": "address"
        }
      ],
      "name": "OwnableUnauthorizedAccount",
      "type": "error"
    },
    {
      "inputs": [],
      "name": "ReentrancyGuardReentrantCall",
      "type": "error"
    },
    {
      "anonymous": false,
      "inputs": [
        {
          "indexed": true,
          "internalType": "uint256",
          "name": "challengeId",
          "type": "uint256"
        },
        {
          "indexed": false,
          "internalType": "string",
          "name": "name",
          "type": "string"
        },
        {
          "indexed": false,
          "internalType": "uint256",
          "name": "endTime",
          "type": "uint256"
        }
      ],
      "name": "ChallengeCreated",
      "type": "event"
    },
    {
      "anonymous": false,
      "inputs": [
        {
          "indexed": true,
          "internalType": "address",
          "name": "previousOwner",
          "type": "address"
        },
        {
          "indexed": true,
          "internalType": "address",
          "name": "newOwner",
          "type": "address"
        }
      ],
      "name": "OwnershipTransferred",
      "type": "event"
    },
    {
      "anonymous": false,
      "inputs": [
        {
          "indexed": true,
          "internalType": "uint256",
          "name": "challengeId",
          "type": "uint256"
        },
        {
          "indexed": true,
          "internalType": "address",
          "name": "user",
          "type": "address"
        },
        {
          "indexed": false,
          "internalType": "uint256",
          "name": "amount",
          "type": "uint256"
        }
      ],
      "name": "RewardClaimed",
      "type": "event"
    },
    {
      "anonymous": false,
      "inputs": [
        {
          "indexed": true,
          "internalType": "uint256",
          "name": "challengeId",
          "type": "uint256"
        },
        {
          "indexed": true,
          "internalType": "address",
          "name": "user",
          "type": "address"
        },
        {
          "indexed": false,
          "internalType": "uint256",
          "name": "score",
          "type": "uint256"
        }
      ],
      "name": "ScoreSubmitted",
      "type": "event"
    },
    {
      "anonymous": false,
      "inputs": [
        {
          "indexed": true,
          "internalType": "uint256",
          "name": "challengeId",
          "type": "uint256"
        },
        {
          "indexed": true,
          "internalType": "address",
          "name": "user",
          "type": "address"
        }
      ],
      "name": "UserJoined",
      "type": "event"
    },
    {
      "inputs": [],
      "name": "challengeCount",
      "outputs": [
        {
          "internalType": "uint256",
          "name": "",
          "type": "uint256"
        }
      ],
      "stateMutability": "view",
      "type": "function"
    },
    {
      "inputs": [
        {
          "internalType": "uint256",
          "name": "",
          "type": "uint256"
        }
      ],
      "name": "challenges",
      "outputs": [
        {
          "internalType": "string",
          "name": "name",
          "type": "string"
        },
        {
          "internalType": "string",
          "name": "description",
          "type": "string"
        },
        {
          "internalType": "uint256",
          "name": "startTime",
          "type": "uint256"
        },
        {
          "internalType": "uint256",
          "name": "endTime",
          "type": "uint256"
        },
        {
          "internalType": "uint256",
          "name": "rewardPool",
          "type": "uint256"
        },
        {
          "internalType": "uint256",
          "name": "participantCount",
          "type": "uint256"
        },
        {
          "internalType": "bool",
          "name": "isActive",
          "type": "bool"
        }
      ],
      "stateMutability": "view",
      "type": "function"
    },
    {
      "inputs": [
        {
          "internalType": "uint256",
          "name": "_challengeId",
          "type": "uint256"
        }
      ],
      "name": "claimReward",
      "outputs": [],
      "stateMutability": "nonpayable",
      "type": "function"
    },
    {
      "inputs": [
        {
          "internalType": "string",
          "name": "_name",
          "type": "string"
        },
        {
          "internalType": "string",
          "name": "_description",
          "type": "string"
        },
        {
          "internalType": "uint256",
          "name": "_duration",
          "type": "uint256"
        },
        {
          "internalType": "uint256",
          "name": "_rewardAmount",
          "type": "uint256"
        }
      ],
      "name": "createChallenge",
      "outputs": [],
      "stateMutability": "nonpayable",
      "type": "function"
    },
    {
      "inputs": [
        {
          "internalType": "uint256",
          "name": "_challengeId",
          "type": "uint256"
        }
      ],
      "name": "joinChallenge",
      "outputs": [],
      "stateMutability": "nonpayable",
      "type": "function"
    },
    {
      "inputs": [],
      "name": "owner",
      "outputs": [
        {
          "internalType": "address",
          "name": "",
          "type": "address"
        }
      ],
      "stateMutability": "view",
      "type": "function"
    },
    {
      "inputs": [
        {
          "internalType": "uint256",
          "name": "",
          "type": "uint256"
        },
        {
          "internalType": "address",
          "name": "",
          "type": "address"
        }
      ],
      "name": "participants",
      "outputs": [
        {
          "internalType": "bool",
          "name": "hasJoined",
          "type": "bool"
        },
        {
          "internalType": "uint256",
          "name": "score",
          "type": "uint256"
        },
        {
          "internalType": "bool",
          "name": "hasClaimed",
          "type": "bool"
        }
      ],
      "stateMutability": "view",
      "type": "function"
    },
    {
      "inputs": [],
      "name": "renounceOwnership",
      "outputs": [],
      "stateMutability": "nonpayable",
      "type": "function"
    },
    {
      "inputs": [],
      "name": "rewardToken",
      "outputs": [
        {
          "internalType": "contract IERC20",
          "name": "",
          "type": "address"
        }
      ],
      "stateMutability": "view",
      "type": "function"
    },
    {
      "inputs": [
        {
          "internalType": "uint256",
          "name": "_challengeId",
          "type": "uint256"
        },
        {
          "internalType": "uint256",
          "name": "_score",
          "type": "uint256"
        }
      ],
      "name": "submitScore",
      "outputs": [],
      "stateMutability": "nonpayable",
      "type": "function"
    },
    {
      "inputs": [
        {
          "internalType": "address",
          "name": "newOwner",
          "type": "address"
        }
      ],
      "name": "transferOwnership",
      "outputs": [],
      "stateMutability": "nonpayable",
      "type": "function"
    }
  ],
  "bytecode": "0x60803460d157601f610e4338819003918201601f19168301916001600160401b0383118484101760d55780849260209460405283398101031260d157516001600160a01b0381169081900360d157331560be575f8054336001600160a01b0319821681178355604051939290916001600160a01b0316907f8be0079c531659141344cd1fd0a4f28419497f9722a3daafe3b4186f6b6457e09080a360018055600280546001600160a01b031916919091179055610d5990816100ea8239f35b631e4fbdf760e01b5f525f60045260245ffd5b5f80fd5b634e487b7160e01b5f52604160045260245ffdfe60806040526004361015610011575f80fd5b5f3560e01c806302e060c614610a92578063715018a614610a3b5780638358ba08146109a65780638da5cb5b1461097f5780638f1d3776146108e3578063a2f05725146108c6578063ae169a501461071b578063e448ee26146105be578063f2fde38b14610535578063f352c45c146100be5763f7c618c114610092575f80fd5b346100ba575f3660031901126100ba576002546040516001600160a01b039091168152602090f35b5f80fd5b346100ba5760803660031901126100ba5760043567ffffffffffffffff81116100ba576100ef903690600401610c20565b60243567ffffffffffffffff81116100ba5761010f903690600401610c20565b906044359060643561011f610cfd565b6002546040516323b872dd60e01b81523360048201523060248201526044810183905290602090829060649082905f906001600160a01b03165af190811561052a575f916104fb575b50156104c457610179600554610cce565b90816005556101888442610cf0565b6040519160e0830183811067ffffffffffffffff8211176103f257604052848352602083019687526040830191428352606084019081526080840191825260a08401925f845260c0850195600187525f52600360205260405f20945180519067ffffffffffffffff82116103f25781906102028854610b02565b601f8111610474575b50602090601f8311600114610411575f92610406575b50508160011b915f199060031b1c19161785555b60018501985198895167ffffffffffffffff81116103f2576102578254610b02565b601f81116103ad575b506020601f821160011461031c5791816103069a999896949260069896947fd9e1dd888325e72084cbcf9634262dfb2ba49c6eda196148e4b9c4c44d14678b9d9e5f92610311575b50508160011b915f199060031b1c19161790555b516002850155516003840155516004830155516005820155019051151560ff801983541691161790556102f26005549442610cf0565b604051928392604084526040840190610bfc565b9060208301520390a2005b015190508e806102a8565b601f1982169b835f52815f209c5f5b8181106103955750927fd9e1dd888325e72084cbcf9634262dfb2ba49c6eda196148e4b9c4c44d14678b9c9d600699979593600193836103069f9e9d9b99971061037d575b505050811b0190556102bc565b01515f1960f88460031b161c191690558e8080610370565b838301518f556001909e019d6020938401930161032b565b825f5260205f20601f830160051c810191602084106103e8575b601f0160051c01905b8181106103dd5750610260565b5f81556001016103d0565b90915081906103c7565b634e487b7160e01b5f52604160045260245ffd5b015190508b80610221565b5f8981528281209350601f198516905b81811061045c5750908460019594939210610444575b505050811b018555610235565b01515f1960f88460031b161c191690558b8080610437565b92936020600181928786015181550195019301610421565b909150875f5260205f20601f840160051c810191602085106104ba575b90601f859493920160051c01905b8181106104ac575061020b565b5f815584935060010161049f565b9091508190610491565b60405162461bcd60e51b815260206004820152600f60248201526e151c985b9cd9995c8819985a5b1959608a1b6044820152606490fd5b61051d915060203d602011610523575b6105158183610b3a565b810190610cb6565b85610168565b503d61050b565b6040513d5f823e3d90fd5b346100ba5760203660031901126100ba576004356001600160a01b038116908190036100ba57610563610cfd565b80156105ab575f80546001600160a01b03198116831782556001600160a01b0316907f8be0079c531659141344cd1fd0a4f28419497f9722a3daafe3b4186f6b6457e09080a3005b631e4fbdf760e01b5f525f60045260245ffd5b346100ba5760203660031901126100ba57600435805f52600360205260405f2060ff600682015416156106df5760038101544210156106a8575f82815260046020908152604080832033845290915290205460ff16610672575f8281526004602090815260408083203384529091529020805460ff19166001179055600501805461064890610cce565b905533907f6a5f716eff9d9b77c04378575633c0f6784ea8d1a0b7cc011d723b4022decd575f80a3005b60405162461bcd60e51b815260206004820152600e60248201526d105b1c9958591e481a9bda5b995960921b6044820152606490fd5b60405162461bcd60e51b815260206004820152600f60248201526e10da185b1b195b99d948195b991959608a1b6044820152606490fd5b60405162461bcd60e51b81526020600482015260146024820152734368616c6c656e6765206e6f742061637469766560601b6044820152606490fd5b346100ba5760203660031901126100ba576004356002600154146108b75760026001555f8181526003602081815260408084206004835281852033865290925290922090820154919291421115610879578061077c60ff6002935416610c76565b0180549260ff84166108425760056004820154910154801561082e57600191049360ff19161790555f602060018060a01b036002541660446040518094819363a9059cbb60e01b83523360048401528860248401525af1801561052a57610811575b506040519182527f24b5efa61dd1cfc659205a97fb8ed868f3cb8c81922bab2b96423e5de1de2cb760203393a360018055005b6108299060203d602011610523576105158183610b3a565b6107de565b634e487b7160e01b5f52601260045260245ffd5b60405162461bcd60e51b815260206004820152600f60248201526e105b1c9958591e4818db185a5b5959608a1b6044820152606490fd5b60405162461bcd60e51b81526020600482015260166024820152754368616c6c656e6765207374696c6c2061637469766560501b6044820152606490fd5b633ee5aeb560e01b5f5260045ffd5b346100ba575f3660031901126100ba576020600554604051908152f35b346100ba5760203660031901126100ba576004355f52600360205261095160405f2061090e81610b5c565b9061091b60018201610b5c565b600282015491600381015460048201549061095f60ff60066005860154950154169460405198899860e08a5260e08a0190610bfc565b9088820360208a0152610bfc565b9460408701526060860152608085015260a0840152151560c08301520390f35b346100ba575f3660031901126100ba575f546040516001600160a01b039091168152602090f35b346100ba5760403660031901126100ba576024356004356109c5610cfd565b5f8181526004602090815260408083203384529091529020546109ea9060ff16610c76565b805f52600460205260405f2060018060a01b0333165f5260205281600160405f2001556040519182527ffdeaad9f62c24dd107d87ba2c0b144114dec62d178cad522394390f1d233a62c60203393a3005b346100ba575f3660031901126100ba57610a53610cfd565b5f80546001600160a01b0319811682556001600160a01b03167f8be0079c531659141344cd1fd0a4f28419497f9722a3daafe3b4186f6b6457e08280a3005b346100ba5760403660031901126100ba576024356001600160a01b03811681036100ba576004355f52600460205260405f209060018060a01b03165f52602052606060405f2060ff8154169060ff6002600183015492015416906040519215158352602083015215156040820152f35b90600182811c92168015610b30575b6020831014610b1c57565b634e487b7160e01b5f52602260045260245ffd5b91607f1691610b11565b90601f8019910116810190811067ffffffffffffffff8211176103f257604052565b9060405191825f825492610b6f84610b02565b8084529360018116908115610bda5750600114610b96575b50610b9492500383610b3a565b565b90505f9291925260205f20905f915b818310610bbe575050906020610b94928201015f610b87565b6020919350806001915483858901015201910190918492610ba5565b905060209250610b9494915060ff191682840152151560051b8201015f610b87565b805180835260209291819084018484015e5f828201840152601f01601f1916010190565b81601f820112156100ba5780359067ffffffffffffffff82116103f25760405192610c55601f8401601f191660200185610b3a565b828452602083830101116100ba57815f926020809301838601378301015290565b15610c7d57565b60405162461bcd60e51b8152602060048201526011602482015270139bdd0818481c185c9d1a58da5c185b9d607a1b6044820152606490fd5b908160209103126100ba575180151581036100ba5790565b5f198114610cdc5760010190565b634e487b7160e01b5f52601160045260245ffd5b91908201809211610cdc57565b5f546001600160a01b03163303610d1057565b63118cdaa760e01b5f523360045260245ffdfea26469706673582212203725a0cef22b72e0e4563382a481a339a586319ab4c6a63784fe64d1f436c3f364736f6c634300081c0033",
  "linkReferences": {},
  "deployedLinkReferences": {}
}