{
  "_format": "hh-sol-artifact-1",
  "contractName": "Governance",
  "sourceName": "contracts/Governance.sol",
  "abi": [
    {
      "inputs": [
        {
          "internalType": "contract IVotes",
          "name": "_token",
          "type": "address"
        }
      ],
      "stateMutability": "nonpayable",
      "type": "constructor"
    },
    {
      "inputs": [],
      "name": "CheckpointUnorderedInsertion",
      "type": "error"
    },
    {
      "inputs": [],
      "name": "FailedCall",
      "type": "error"
    },
    {
      "inputs": [
        {
          "internalType": "address",
          "name": "voter",
          "type": "address"
        }
      ],
      "name": "GovernorAlreadyCastVote",
      "type": "error"
    },
    {
      "inputs": [
        {
          "internalType": "uint256",
          "name": "proposalId",
          "type": "uint256"
        }
      ],
      "name": "GovernorAlreadyQueuedProposal",
      "type": "error"
    },
    {
      "inputs": [],
      "name": "GovernorDisabledDeposit",
      "type": "error"
    },
    {
      "inputs": [
        {
          "internalType": "address",
          "name": "proposer",
          "type": "address"
        },
        {
          "internalType": "uint256",
          "name": "votes",
          "type": "uint256"
        },
        {
          "internalType": "uint256",
          "name": "threshold",
          "type": "uint256"
        }
      ],
      "name": "GovernorInsufficientProposerVotes",
      "type": "error"
    },
    {
      "inputs": [
        {
          "internalType": "uint256",
          "name": "targets",
          "type": "uint256"
        },
        {
          "internalType": "uint256",
          "name": "calldatas",
          "type": "uint256"
        },
        {
          "internalType": "uint256",
          "name": "values",
          "type": "uint256"
        }
      ],
      "name": "GovernorInvalidProposalLength",
      "type": "error"
    },
    {
      "inputs": [
        {
          "internalType": "uint256",
          "name": "quorumNumerator",
          "type": "uint256"
        },
        {
          "internalType": "uint256",
          "name": "quorumDenominator",
          "type": "uint256"
        }
      ],
      "name": "GovernorInvalidQuorumFraction",
      "type": "error"
    },
    {
      "inputs": [
        {
          "internalType": "address",
          "name": "voter",
          "type": "address"
        }
      ],
      "name": "GovernorInvalidSignature",
      "type": "error"
    },
    {
      "inputs": [],
      "name": "GovernorInvalidVoteParams",
      "type": "error"
    },
    {
      "inputs": [],
      "name": "GovernorInvalidVoteType",
      "type": "error"
    },
    {
      "inputs": [
        {
          "internalType": "uint256",
          "name": "votingPeriod",
          "type": "uint256"
        }
      ],
      "name": "GovernorInvalidVotingPeriod",
      "type": "error"
    },
    {
      "inputs": [
        {
          "internalType": "uint256",
          "name": "proposalId",
          "type": "uint256"
        }
      ],
      "name": "GovernorNonexistentProposal",
      "type": "error"
    },
    {
      "inputs": [
        {
          "internalType": "uint256",
          "name": "proposalId",
          "type": "uint256"
        }
      ],
      "name": "GovernorNotQueuedProposal",
      "type": "error"
    },
    {
      "inputs": [
        {
          "internalType": "address",
          "name": "account",
          "type": "address"
        }
      ],
      "name": "GovernorOnlyExecutor",
      "type": "error"
    },
    {
      "inputs": [],
      "name": "GovernorQueueNotImplemented",
      "type": "error"
    },
    {
      "inputs": [
        {
          "internalType": "address",
          "name": "proposer",
          "type": "address"
        }
      ],
      "name": "GovernorRestrictedProposer",
      "type": "error"
    },
    {
      "inputs": [
        {
          "internalType": "uint256",
          "name": "proposalId",
          "type": "uint256"
        },
        {
          "internalType": "address",
          "name": "account",
          "type": "address"
        }
      ],
      "name": "GovernorUnableToCancel",
      "type": "error"
    },
    {
      "inputs": [
        {
          "internalType": "uint256",
          "name": "proposalId",
          "type": "uint256"
        },
        {
          "internalType": "enum IGovernor.ProposalState",
          "name": "current",
          "type": "uint8"
        },
        {
          "internalType": "bytes32",
          "name": "expectedStates",
          "type": "bytes32"
        }
      ],
      "name": "GovernorUnexpectedProposalState",
      "type": "error"
    },
    {
      "inputs": [
        {
          "internalType": "address",
          "name": "account",
          "type": "address"
        },
        {
          "internalType": "uint256",
          "name": "currentNonce",
          "type": "uint256"
        }
      ],
      "name": "InvalidAccountNonce",
      "type": "error"
    },
    {
      "inputs": [],
      "name": "InvalidShortString",
      "type": "error"
    },
    {
      "inputs": [
        {
          "internalType": "uint8",
          "name": "bits",
          "type": "uint8"
        },
        {
          "internalType": "uint256",
          "name": "value",
          "type": "uint256"
        }
      ],
      "name": "SafeCastOverflowedUintDowncast",
      "type": "error"
    },
    {
      "inputs": [
        {
          "internalType": "string",
          "name": "str",
          "type": "string"
        }
      ],
      "name": "StringTooLong",
      "type": "error"
    },
    {
      "anonymous": false,
      "inputs": [],
      "name": "EIP712DomainChanged",
      "type": "event"
    },
    {
      "anonymous": false,
      "inputs": [
        {
          "indexed": false,
          "internalType": "uint256",
          "name": "proposalId",
          "type": "uint256"
        }
      ],
      "name": "ProposalCanceled",
      "type": "event"
    },
    {
      "anonymous": false,
      "inputs": [
        {
          "indexed": false,
          "internalType": "uint256",
          "name": "proposalId",
          "type": "uint256"
        },
        {
          "indexed": false,
          "internalType": "address",
          "name": "proposer",
          "type": "address"
        },
        {
          "indexed": false,
          "internalType": "address[]",
          "name": "targets",
          "type": "address[]"
        },
        {
          "indexed": false,
          "internalType": "uint256[]",
          "name": "values",
          "type": "uint256[]"
        },
        {
          "indexed": false,
          "internalType": "string[]",
          "name": "signatures",
          "type": "string[]"
        },
        {
          "indexed": false,
          "internalType": "bytes[]",
          "name": "calldatas",
          "type": "bytes[]"
        },
        {
          "indexed": false,
          "internalType": "uint256",
          "name": "voteStart",
          "type": "uint256"
        },
        {
          "indexed": false,
          "internalType": "uint256",
          "name": "voteEnd",
          "type": "uint256"
        },
        {
          "indexed": false,
          "internalType": "string",
          "name": "description",
          "type": "string"
        }
      ],
      "name": "ProposalCreated",
      "type": "event"
    },
    {
      "anonymous": false,
      "inputs": [
        {
          "indexed": false,
          "internalType": "uint256",
          "name": "proposalId",
          "type": "uint256"
        }
      ],
      "name": "ProposalExecuted",
      "type": "event"
    },
    {
      "anonymous": false,
      "inputs": [
        {
          "indexed": false,
          "internalType": "uint256",
          "name": "proposalId",
          "type": "uint256"
        },
        {
          "indexed": false,
          "internalType": "uint256",
          "name": "etaSeconds",
          "type": "uint256"
        }
      ],
      "name": "ProposalQueued",
      "type": "event"
    },
    {
      "anonymous": false,
      "inputs": [
        {
          "indexed": false,
          "internalType": "uint256",
          "name": "oldProposalThreshold",
          "type": "uint256"
        },
        {
          "indexed": false,
          "internalType": "uint256",
          "name": "newProposalThreshold",
          "type": "uint256"
        }
      ],
      "name": "ProposalThresholdSet",
      "type": "event"
    },
    {
      "anonymous": false,
      "inputs": [
        {
          "indexed": false,
          "internalType": "uint256",
          "name": "oldQuorumNumerator",
          "type": "uint256"
        },
        {
          "indexed": false,
          "internalType": "uint256",
          "name": "newQuorumNumerator",
          "type": "uint256"
        }
      ],
      "name": "QuorumNumeratorUpdated",
      "type": "event"
    },
    {
      "anonymous": false,
      "inputs": [
        {
          "indexed": true,
          "internalType": "address",
          "name": "voter",
          "type": "address"
        },
        {
          "indexed": false,
          "internalType": "uint256",
          "name": "proposalId",
          "type": "uint256"
        },
        {
          "indexed": false,
          "internalType": "uint8",
          "name": "support",
          "type": "uint8"
        },
        {
          "indexed": false,
          "internalType": "uint256",
          "name": "weight",
          "type": "uint256"
        },
        {
          "indexed": false,
          "internalType": "string",
          "name": "reason",
          "type": "string"
        }
      ],
      "name": "VoteCast",
      "type": "event"
    },
    {
      "anonymous": false,
      "inputs": [
        {
          "indexed": true,
          "internalType": "address",
          "name": "voter",
          "type": "address"
        },
        {
          "indexed": false,
          "internalType": "uint256",
          "name": "proposalId",
          "type": "uint256"
        },
        {
          "indexed": false,
          "internalType": "uint8",
          "name": "support",
          "type": "uint8"
        },
        {
          "indexed": false,
          "internalType": "uint256",
          "name": "weight",
          "type": "uint256"
        },
        {
          "indexed": false,
          "internalType": "string",
          "name": "reason",
          "type": "string"
        },
        {
          "indexed": false,
          "internalType": "bytes",
          "name": "params",
          "type": "bytes"
        }
      ],
      "name": "VoteCastWithParams",
      "type": "event"
    },
    {
      "anonymous": false,
      "inputs": [
        {
          "indexed": false,
          "internalType": "uint256",
          "name": "oldVotingDelay",
          "type": "uint256"
        },
        {
          "indexed": false,
          "internalType": "uint256",
          "name": "newVotingDelay",
          "type": "uint256"
        }
      ],
      "name": "VotingDelaySet",
      "type": "event"
    },
    {
      "anonymous": false,
      "inputs": [
        {
          "indexed": false,
          "internalType": "uint256",
          "name": "oldVotingPeriod",
          "type": "uint256"
        },
        {
          "indexed": false,
          "internalType": "uint256",
          "name": "newVotingPeriod",
          "type": "uint256"
        }
      ],
      "name": "VotingPeriodSet",
      "type": "event"
    },
    {
      "inputs": [],
      "name": "BALLOT_TYPEHASH",
      "outputs": [
        {
          "internalType": "bytes32",
          "name": "",
          "type": "bytes32"
        }
      ],
      "stateMutability": "view",
      "type": "function"
    },
    {
      "inputs": [],
      "name": "CLOCK_MODE",
      "outputs": [
        {
          "internalType": "string",
          "name": "",
          "type": "string"
        }
      ],
      "stateMutability": "view",
      "type": "function"
    },
    {
      "inputs": [],
      "name": "COUNTING_MODE",
      "outputs": [
        {
          "internalType": "string",
          "name": "",
          "type": "string"
        }
      ],
      "stateMutability": "pure",
      "type": "function"
    },
    {
      "inputs": [],
      "name": "EXTENDED_BALLOT_TYPEHASH",
      "outputs": [
        {
          "internalType": "bytes32",
          "name": "",
          "type": "bytes32"
        }
      ],
      "stateMutability": "view",
      "type": "function"
    },
    {
      "inputs": [
        {
          "internalType": "address[]",
          "name": "targets",
          "type": "address[]"
        },
        {
          "internalType": "uint256[]",
          "name": "values",
          "type": "uint256[]"
        },
        {
          "internalType": "bytes[]",
          "name": "calldatas",
          "type": "bytes[]"
        },
        {
          "internalType": "bytes32",
          "name": "descriptionHash",
          "type": "bytes32"
        }
      ],
      "name": "cancel",
      "outputs": [
        {
          "internalType": "uint256",
          "name": "",
          "type": "uint256"
        }
      ],
      "stateMutability": "nonpayable",
      "type": "function"
    },
    {
      "inputs": [
        {
          "internalType": "uint256",
          "name": "proposalId",
          "type": "uint256"
        },
        {
          "internalType": "uint8",
          "name": "support",
          "type": "uint8"
        }
      ],
      "name": "castVote",
      "outputs": [
        {
          "internalType": "uint256",
          "name": "",
          "type": "uint256"
        }
      ],
      "stateMutability": "nonpayable",
      "type": "function"
    },
    {
      "inputs": [
        {
          "internalType": "uint256",
          "name": "proposalId",
          "type": "uint256"
        },
        {
          "internalType": "uint8",
          "name": "support",
          "type": "uint8"
        },
        {
          "internalType": "address",
          "name": "voter",
          "type": "address"
        },
        {
          "internalType": "bytes",
          "name": "signature",
          "type": "bytes"
        }
      ],
      "name": "castVoteBySig",
      "outputs": [
        {
          "internalType": "uint256",
          "name": "",
          "type": "uint256"
        }
      ],
      "stateMutability": "nonpayable",
      "type": "function"
    },
    {
      "inputs": [
        {
          "internalType": "uint256",
          "name": "proposalId",
          "type": "uint256"
        },
        {
          "internalType": "uint8",
          "name": "support",
          "type": "uint8"
        },
        {
          "internalType": "string",
          "name": "reason",
          "type": "string"
        }
      ],
      "name": "castVoteWithReason",
      "outputs": [
        {
          "internalType": "uint256",
          "name": "",
          "type": "uint256"
        }
      ],
      "stateMutability": "nonpayable",
      "type": "function"
    },
    {
      "inputs": [
        {
          "internalType": "uint256",
          "name": "proposalId",
          "type": "uint256"
        },
        {
          "internalType": "uint8",
          "name": "support",
          "type": "uint8"
        },
        {
          "internalType": "string",
          "name": "reason",
          "type": "string"
        },
        {
          "internalType": "bytes",
          "name": "params",
          "type": "bytes"
        }
      ],
      "name": "castVoteWithReasonAndParams",
      "outputs": [
        {
          "internalType": "uint256",
          "name": "",
          "type": "uint256"
        }
      ],
      "stateMutability": "nonpayable",
      "type": "function"
    },
    {
      "inputs": [
        {
          "internalType": "uint256",
          "name": "proposalId",
          "type": "uint256"
        },
        {
          "internalType": "uint8",
          "name": "support",
          "type": "uint8"
        },
        {
          "internalType": "address",
          "name": "voter",
          "type": "address"
        },
        {
          "internalType": "string",
          "name": "reason",
          "type": "string"
        },
        {
          "internalType": "bytes",
          "name": "params",
          "type": "bytes"
        },
        {
          "internalType": "bytes",
          "name": "signature",
          "type": "bytes"
        }
      ],
      "name": "castVoteWithReasonAndParamsBySig",
      "outputs": [
        {
          "internalType": "uint256",
          "name": "",
          "type": "uint256"
        }
      ],
      "stateMutability": "nonpayable",
      "type": "function"
    },
    {
      "inputs": [],
      "name": "clock",
      "outputs": [
        {
          "internalType": "uint48",
          "name": "",
          "type": "uint48"
        }
      ],
      "stateMutability": "view",
      "type": "function"
    },
    {
      "inputs": [],
      "name": "eip712Domain",
      "outputs": [
        {
          "internalType": "bytes1",
          "name": "fields",
          "type": "bytes1"
        },
        {
          "internalType": "string",
          "name": "name",
          "type": "string"
        },
        {
          "internalType": "string",
          "name": "version",
          "type": "string"
        },
        {
          "internalType": "uint256",
          "name": "chainId",
          "type": "uint256"
        },
        {
          "internalType": "address",
          "name": "verifyingContract",
          "type": "address"
        },
        {
          "internalType": "bytes32",
          "name": "salt",
          "type": "bytes32"
        },
        {
          "internalType": "uint256[]",
          "name": "extensions",
          "type": "uint256[]"
        }
      ],
      "stateMutability": "view",
      "type": "function"
    },
    {
      "inputs": [
        {
          "internalType": "address[]",
          "name": "targets",
          "type": "address[]"
        },
        {
          "internalType": "uint256[]",
          "name": "values",
          "type": "uint256[]"
        },
        {
          "internalType": "bytes[]",
          "name": "calldatas",
          "type": "bytes[]"
        },
        {
          "internalType": "bytes32",
          "name": "descriptionHash",
          "type": "bytes32"
        }
      ],
      "name": "execute",
      "outputs": [
        {
          "internalType": "uint256",
          "name": "",
          "type": "uint256"
        }
      ],
      "stateMutability": "payable",
      "type": "function"
    },
    {
      "inputs": [
        {
          "internalType": "address[]",
          "name": "targets",
          "type": "address[]"
        },
        {
          "internalType": "uint256[]",
          "name": "values",
          "type": "uint256[]"
        },
        {
          "internalType": "bytes[]",
          "name": "calldatas",
          "type": "bytes[]"
        },
        {
          "internalType": "bytes32",
          "name": "descriptionHash",
          "type": "bytes32"
        }
      ],
      "name": "getProposalId",
      "outputs": [
        {
          "internalType": "uint256",
          "name": "",
          "type": "uint256"
        }
      ],
      "stateMutability": "view",
      "type": "function"
    },
    {
      "inputs": [
        {
          "internalType": "address",
          "name": "account",
          "type": "address"
        },
        {
          "internalType": "uint256",
          "name": "timepoint",
          "type": "uint256"
        }
      ],
      "name": "getVotes",
      "outputs": [
        {
          "internalType": "uint256",
          "name": "",
          "type": "uint256"
        }
      ],
      "stateMutability": "view",
      "type": "function"
    },
    {
      "inputs": [
        {
          "internalType": "address",
          "name": "account",
          "type": "address"
        },
        {
          "internalType": "uint256",
          "name": "timepoint",
          "type": "uint256"
        },
        {
          "internalType": "bytes",
          "name": "params",
          "type": "bytes"
        }
      ],
      "name": "getVotesWithParams",
      "outputs": [
        {
          "internalType": "uint256",
          "name": "",
          "type": "uint256"
        }
      ],
      "stateMutability": "view",
      "type": "function"
    },
    {
      "inputs": [
        {
          "internalType": "uint256",
          "name": "proposalId",
          "type": "uint256"
        },
        {
          "internalType": "address",
          "name": "account",
          "type": "address"
        }
      ],
      "name": "hasVoted",
      "outputs": [
        {
          "internalType": "bool",
          "name": "",
          "type": "bool"
        }
      ],
      "stateMutability": "view",
      "type": "function"
    },
    {
      "inputs": [
        {
          "internalType": "address[]",
          "name": "targets",
          "type": "address[]"
        },
        {
          "internalType": "uint256[]",
          "name": "values",
          "type": "uint256[]"
        },
        {
          "internalType": "bytes[]",
          "name": "calldatas",
          "type": "bytes[]"
        },
        {
          "internalType": "bytes32",
          "name": "descriptionHash",
          "type": "bytes32"
        }
      ],
      "name": "hashProposal",
      "outputs": [
        {
          "internalType": "uint256",
          "name": "",
          "type": "uint256"
        }
      ],
      "stateMutability": "pure",
      "type": "function"
    },
    {
      "inputs": [],
      "name": "name",
      "outputs": [
        {
          "internalType": "string",
          "name": "",
          "type": "string"
        }
      ],
      "stateMutability": "view",
      "type": "function"
    },
    {
      "inputs": [
        {
          "internalType": "address",
          "name": "owner",
          "type": "address"
        }
      ],
      "name": "nonces",
      "outputs": [
        {
          "internalType": "uint256",
          "name": "",
          "type": "uint256"
        }
      ],
      "stateMutability": "view",
      "type": "function"
    },
    {
      "inputs": [
        {
          "internalType": "address",
          "name": "",
          "type": "address"
        },
        {
          "internalType": "address",
          "name": "",
          "type": "address"
        },
        {
          "internalType": "uint256[]",
          "name": "",
          "type": "uint256[]"
        },
        {
          "internalType": "uint256[]",
          "name": "",
          "type": "uint256[]"
        },
        {
          "internalType": "bytes",
          "name": "",
          "type": "bytes"
        }
      ],
      "name": "onERC1155BatchReceived",
      "outputs": [
        {
          "internalType": "bytes4",
          "name": "",
          "type": "bytes4"
        }
      ],
      "stateMutability": "nonpayable",
      "type": "function"
    },
    {
      "inputs": [
        {
          "internalType": "address",
          "name": "",
          "type": "address"
        },
        {
          "internalType": "address",
          "name": "",
          "type": "address"
        },
        {
          "internalType": "uint256",
          "name": "",
          "type": "uint256"
        },
        {
          "internalType": "uint256",
          "name": "",
          "type": "uint256"
        },
        {
          "internalType": "bytes",
          "name": "",
          "type": "bytes"
        }
      ],
      "name": "onERC1155Received",
      "outputs": [
        {
          "internalType": "bytes4",
          "name": "",
          "type": "bytes4"
        }
      ],
      "stateMutability": "nonpayable",
      "type": "function"
    },
    {
      "inputs": [
        {
          "internalType": "address",
          "name": "",
          "type": "address"
        },
        {
          "internalType": "address",
          "name": "",
          "type": "address"
        },
        {
          "internalType": "uint256",
          "name": "",
          "type": "uint256"
        },
        {
          "internalType": "bytes",
          "name": "",
          "type": "bytes"
        }
      ],
      "name": "onERC721Received",
      "outputs": [
        {
          "internalType": "bytes4",
          "name": "",
          "type": "bytes4"
        }
      ],
      "stateMutability": "nonpayable",
      "type": "function"
    },
    {
      "inputs": [
        {
          "internalType": "uint256",
          "name": "proposalId",
          "type": "uint256"
        }
      ],
      "name": "proposalDeadline",
      "outputs": [
        {
          "internalType": "uint256",
          "name": "",
          "type": "uint256"
        }
      ],
      "stateMutability": "view",
      "type": "function"
    },
    {
      "inputs": [
        {
          "internalType": "uint256",
          "name": "proposalId",
          "type": "uint256"
        }
      ],
      "name": "proposalEta",
      "outputs": [
        {
          "internalType": "uint256",
          "name": "",
          "type": "uint256"
        }
      ],
      "stateMutability": "view",
      "type": "function"
    },
    {
      "inputs": [
        {
          "internalType": "uint256",
          "name": "",
          "type": "uint256"
        }
      ],
      "name": "proposalNeedsQueuing",
      "outputs": [
        {
          "internalType": "bool",
          "name": "",
          "type": "bool"
        }
      ],
      "stateMutability": "view",
      "type": "function"
    },
    {
      "inputs": [
        {
          "internalType": "uint256",
          "name": "proposalId",
          "type": "uint256"
        }
      ],
      "name": "proposalProposer",
      "outputs": [
        {
          "internalType": "address",
          "name": "",
          "type": "address"
        }
      ],
      "stateMutability": "view",
      "type": "function"
    },
    {
      "inputs": [
        {
          "internalType": "uint256",
          "name": "proposalId",
          "type": "uint256"
        }
      ],
      "name": "proposalSnapshot",
      "outputs": [
        {
          "internalType": "uint256",
          "name": "",
          "type": "uint256"
        }
      ],
      "stateMutability": "view",
      "type": "function"
    },
    {
      "inputs": [],
      "name": "proposalThreshold",
      "outputs": [
        {
          "internalType": "uint256",
          "name": "",
          "type": "uint256"
        }
      ],
      "stateMutability": "view",
      "type": "function"
    },
    {
      "inputs": [
        {
          "internalType": "uint256",
          "name": "proposalId",
          "type": "uint256"
        }
      ],
      "name": "proposalVotes",
      "outputs": [
        {
          "internalType": "uint256",
          "name": "againstVotes",
          "type": "uint256"
        },
        {
          "internalType": "uint256",
          "name": "forVotes",
          "type": "uint256"
        },
        {
          "internalType": "uint256",
          "name": "abstainVotes",
          "type": "uint256"
        }
      ],
      "stateMutability": "view",
      "type": "function"
    },
    {
      "inputs": [
        {
          "internalType": "address[]",
          "name": "targets",
          "type": "address[]"
        },
        {
          "internalType": "uint256[]",
          "name": "values",
          "type": "uint256[]"
        },
        {
          "internalType": "bytes[]",
          "name": "calldatas",
          "type": "bytes[]"
        },
        {
          "internalType": "string",
          "name": "description",
          "type": "string"
        }
      ],
      "name": "propose",
      "outputs": [
        {
          "internalType": "uint256",
          "name": "",
          "type": "uint256"
        }
      ],
      "stateMutability": "nonpayable",
      "type": "function"
    },
    {
      "inputs": [
        {
          "internalType": "address[]",
          "name": "targets",
          "type": "address[]"
        },
        {
          "internalType": "uint256[]",
          "name": "values",
          "type": "uint256[]"
        },
        {
          "internalType": "bytes[]",
          "name": "calldatas",
          "type": "bytes[]"
        },
        {
          "internalType": "bytes32",
          "name": "descriptionHash",
          "type": "bytes32"
        }
      ],
      "name": "queue",
      "outputs": [
        {
          "internalType": "uint256",
          "name": "",
          "type": "uint256"
        }
      ],
      "stateMutability": "nonpayable",
      "type": "function"
    },
    {
      "inputs": [
        {
          "internalType": "uint256",
          "name": "timepoint",
          "type": "uint256"
        }
      ],
      "name": "quorum",
      "outputs": [
        {
          "internalType": "uint256",
          "name": "",
          "type": "uint256"
        }
      ],
      "stateMutability": "view",
      "type": "function"
    },
    {
      "inputs": [],
      "name": "quorumDenominator",
      "outputs": [
        {
          "internalType": "uint256",
          "name": "",
          "type": "uint256"
        }
      ],
      "stateMutability": "view",
      "type": "function"
    },
    {
      "inputs": [
        {
          "internalType": "uint256",
          "name": "timepoint",
          "type": "uint256"
        }
      ],
      "name": "quorumNumerator",
      "outputs": [
        {
          "internalType": "uint256",
          "name": "",
          "type": "uint256"
        }
      ],
      "stateMutability": "view",
      "type": "function"
    },
    {
      "inputs": [],
      "name": "quorumNumerator",
      "outputs": [
        {
          "internalType": "uint256",
          "name": "",
          "type": "uint256"
        }
      ],
      "stateMutability": "view",
      "type": "function"
    },
    {
      "inputs": [
        {
          "internalType": "address",
          "name": "target",
          "type": "address"
        },
        {
          "internalType": "uint256",
          "name": "value",
          "type": "uint256"
        },
        {
          "internalType": "bytes",
          "name": "data",
          "type": "bytes"
        }
      ],
      "name": "relay",
      "outputs": [],
      "stateMutability": "payable",
      "type": "function"
    },
    {
      "inputs": [
        {
          "internalType": "uint256",
          "name": "newProposalThreshold",
          "type": "uint256"
        }
      ],
      "name": "setProposalThreshold",
      "outputs": [],
      "stateMutability": "nonpayable",
      "type": "function"
    },
    {
      "inputs": [
        {
          "internalType": "uint48",
          "name": "newVotingDelay",
          "type": "uint48"
        }
      ],
      "name": "setVotingDelay",
      "outputs": [],
      "stateMutability": "nonpayable",
      "type": "function"
    },
    {
      "inputs": [
        {
          "internalType": "uint32",
          "name": "newVotingPeriod",
          "type": "uint32"
        }
      ],
      "name": "setVotingPeriod",
      "outputs": [],
      "stateMutability": "nonpayable",
      "type": "function"
    },
    {
      "inputs": [
        {
          "internalType": "uint256",
          "name": "proposalId",
          "type": "uint256"
        }
      ],
      "name": "state",
      "outputs": [
        {
          "internalType": "enum IGovernor.ProposalState",
          "name": "",
          "type": "uint8"
        }
      ],
      "stateMutability": "view",
      "type": "function"
    },
    {
      "inputs": [
        {
          "internalType": "bytes4",
          "name": "interfaceId",
          "type": "bytes4"
        }
      ],
      "name": "supportsInterface",
      "outputs": [
        {
          "internalType": "bool",
          "name": "",
          "type": "bool"
        }
      ],
      "stateMutability": "view",
      "type": "function"
    },
    {
      "inputs": [],
      "name": "token",
      "outputs": [
        {
          "internalType": "contract IERC5805",
          "name": "",
          "type": "address"
        }
      ],
      "stateMutability": "view",
      "type": "function"
    },
    {
      "inputs": [
        {
          "internalType": "uint256",
          "name": "newQuorumNumerator",
          "type": "uint256"
        }
      ],
      "name": "updateQuorumNumerator",
      "outputs": [],
      "stateMutability": "nonpayable",
      "type": "function"
    },
    {
      "inputs": [],
      "name": "version",
      "outputs": [
        {
          "internalType": "string",
          "name": "",
          "type": "string"
        }
      ],
      "stateMutability": "view",
      "type": "function"
    },
    {
      "inputs": [],
      "name": "votingDelay",
      "outputs": [
        {
          "internalType": "uint256",
          "name": "",
          "type": "uint256"
        }
      ],
      "stateMutability": "view",
      "type": "function"
    },
    {
      "inputs": [],
      "name": "votingPeriod",
      "outputs": [
        {
          "internalType": "uint256",
          "name": "",
          "type": "uint256"
        }
      ],
      "stateMutability": "view",
      "type": "function"
    },
    {
      "stateMutability": "payable",
      "type": "receive"
    }
  ],
  "bytecode": "0x610180604052346100a65761001a6100156100f7565b610159565b60405161337290816109d3823960805181612ec5015260a05181612f7c015260c05181612e8f015260e05181612f1401526101005181612f3a015261012051816110f30152610140518161111f01526101605181818161136f015281816117470152818161186701528181611b0401528181611d4a01528181611df90152818161201401526123a10152f35b5f80fd5b634e487b7160e01b5f52604160045260245ffd5b601f909101601f19168101906001600160401b038211908210176100e157604052565b6100aa565b604051906100f56040836100be565b565b613d456020813803918260405193849261011182856100be565b8339810103126100a657516001600160a01b03811681036100a65790565b6040519061013e6040836100be565b600f8252565b604051906101536040836100be565b60018252565b61022161016461012f565b602081016e4e65787573476f7665726e616e636560881b8152610185610144565b906020820190603160f81b825261019b84610557565b610120526101a883610647565b6101405283519020918260e05251902080610100524660a0526040519060208201927f8b73c3c69bb8fe3d512ecc4cf759cc79239f7b179b0ffacaa9a75d522b39400f8452604083015260608201524660808201523060a082015260a0815261021260c0826100be565b5190206080523060c0526102d5565b610229610467565b6102316104b4565b61023961050c565b6001600160a01b0316610160526100f56103ba565b90600182811c9216801561027c575b602083101461026857565b634e487b7160e01b5f52602260045260245ffd5b91607f169161025d565b601f821161029357505050565b5f5260205f20906020601f840160051c830193106102cb575b601f0160051c01905b8181106102c0575050565b5f81556001016102b5565b90915081906102ac565b80519091906001600160401b0381116100e1576102fe816102f760035461024e565b6003610286565b602092601f821160011461033e5761032e929382915f92610333575b50508160011b915f199060031b1c19161790565b600355565b015190505f8061031a565b60035f52601f198216937fc2575a0e9e593c00f959f8c92f12db2869c3395a3b0502d05e2516446f71f85b915f5b8681106103a2575083600195961061038a575b505050811b01600355565b01515f1960f88460031b161c191690555f808061037f565b9192602060018192868501518155019401920161036c565b600a548061041a57505f5b6001600160d01b03166103d6610739565b7f0553476bf02ef2726e8ce5ced78d63e26e602e4a2257b1f559418e24b46339979160049161040690839061089a565b5050604080519182526020820192909252a1565b805f1981011161045357600a5f527fc65a7bb8d6351c1cf70c95a316cc6a92839c986682d98bc35f958f4883f9d2a7015460301c6103c5565b634e487b7160e01b5f52601160045260245ffd5b620151806008547fc565b045403dc03c2eea82b81a0465edad9e2e7fc4d97e11421c209da93d7a936040805165ffffffffffff84168152846020820152a165ffffffffffff191617600855565b68093a800000000000006008547f7e3f7f0708a84de9203036abaa450dccc85ad5ff52f78c170f3edb55cf5e88286040805163ffffffff8460301c16815262093a806020820152a163ffffffff60301b191617600855565b6007546040805191825268056bc75e2d6310000060208301527fccb45da8d5717e6c4544694297c4ba5cf151d455c9bb0ed4fc7a38411bc0546191a168056bc75e2d63100000600755565b908151602081105f1461057257509061056f906107ba565b90565b6001600160401b0381116100e1576105948161058e5f5461024e565b5f610286565b602092601f82116001146105ca576105c3929382915f926103335750508160011b915f199060031b1c19161790565b5f5560ff90565b5f8052601f198216937f290decd9548b62a8d60345a988386fc84ba6bc95484008f6362f93160ef3e563915f5b86811061062f5750836001959610610617575b505050811b015f5560ff90565b01515f1960f88460031b161c191690555f808061060a565b919260206001819286850151815501940192016105f7565b908151602081105f1461065f57509061056f906107ba565b6001600160401b0381116100e1576106838161067c60015461024e565b6001610286565b602092601f82116001146106ba576106b2929382915f926103335750508160011b915f199060031b1c19161790565b60015560ff90565b60015f52601f198216937fb10e2d527612073b26eecdfd717e6a320cf44b4afac2b0732d9fcbe2b7fa0cf6915f5b8681106107215750836001959610610709575b505050811b0160015560ff90565b01515f1960f88460031b161c191690555f80806106fb565b919260206001819286850151815501940192016106e8565b610160516040516324776b7d60e21b815290602090829060049082906001600160a01b03165afa5f9181610777575b5061056f575061056f436109a3565b9091506020813d6020116107b2575b81610793602093836100be565b810103126100a6575165ffffffffffff811681036100a657905f610768565b3d9150610786565b601f8151116107e55760208151910151602082106107d6571790565b5f198260200360031b1b161790565b604460209160405192839163305a27a960e01b83528160048401528051918291826024860152018484015e5f828201840152601f01601f19168101030190fd5b5f1981019190821161045357565b908154680100000000000000008110156100e15760018101808455811015610886575f9283526020928390208251929093015160301b65ffffffffffff191665ffffffffffff9290921691909117910155565b634e487b7160e01b5f52603260045260245ffd5b600a54919291801561097a576108b26108db91610825565b600a5f527fc65a7bb8d6351c1cf70c95a316cc6a92839c986682d98bc35f958f4883f9d2a80190565b9081546108f76108f08265ffffffffffff1690565b9160301c90565b9265ffffffffffff80841692169180831161096b578692036109355761093192509065ffffffffffff82549181199060301b169116179055565b9190565b5050610931906109546109466100e6565b65ffffffffffff9092168252565b6001600160d01b03851660208201525b600a610833565b632520601d60e01b5f5260045ffd5b5061099e9061098a6109466100e6565b6001600160d01b0384166020820152610964565b5f9190565b65ffffffffffff81116109bb5765ffffffffffff1690565b6306dfcc6560e41b5f52603060045260245260445ffdfe6080604052600436101561001a575b3615610018575f80fd5b005b5f3560e01c806301ffc9a71461030457806302a251a3146102ff57806306f3f9e6146102fa57806306fdde03146102f5578063143489d0146102f0578063150b7a02146102eb578063160cbed7146102e65780632656227d146102e15780632d63f693146102dc5780632fe3e261146102d75780633932abb1146102d25780633e4f49e6146102cd57806343859632146102c8578063452115d6146102c35780634bf5d7e9146102be578063544ffc9c146102b957806354fd4d50146102b457806356781388146102af5780635b8d0e0d146102aa5780635f398a14146102a557806360c4247f146102a0578063790518871461029b5780637b3c71d3146102965780637d5e81e2146102915780637ecebe001461028c57806384b0196e146102875780638ff262e31461028257806391ddadf41461027d57806397c3d334146102785780639a802a6d14610273578063a7713a701461026e578063a8f8a6681461024b578063a9a9529414610269578063ab58fb8e14610264578063b58131b01461025f578063bc197c811461025a578063c01f9e3714610255578063c28bc2fa14610250578063c59057e41461024b578063dd4e2ba514610246578063deaaa7cc14610241578063e540d01d1461023c578063eb9019d414610237578063ece40cc114610232578063f23a6e611461022d578063f8ce560a146102285763fc0c546a0361000e57611852565b611834565b6117df565b61178a565b6116e9565b611643565b611609565b6115aa565b611412565b611543565b611525565b611490565b611473565b611440565b611425565b6113e7565b611301565b6112e6565b6112bc565b6111ab565b6110db565b611070565b610fc2565b610f6d565b610efb565b610ecd565b610e4d565b610dab565b610d3d565b610cea565b610ca9565b610c7a565b610b8f565b610b3d565b610b0e565b610ac2565b610a88565b610a53565b61090d565b6108db565b6106b7565b61058c565b6104b2565b6103b4565b61038e565b3461038a57602036600319011261038a5760043563ffffffff60e01b811680910361038a576366defe7760e11b8114908115610379575b8115610368575b8115610357575b506040519015158152602090f35b6301ffc9a760e01b1490505f610349565b630271189760e51b81149150610342565b6332a2ad4360e11b8114915061033b565b5f80fd5b3461038a575f36600319011261038a57602063ffffffff60085460301c16604051908152f35b3461038a57602036600319011261038a576004356103d0612085565b60648111610463576001600160d01b036103e86128b2565b16906103f2611de4565b916001600160d01b03821161044b577f0553476bf02ef2726e8ce5ced78d63e26e602e4a2257b1f559418e24b463399792610437906001600160d01b03841690612dac565b5050604080519182526020820192909252a1005b506306dfcc6560e41b5f5260d060045260245260445ffd5b63243e544560e01b5f52600452606460245260445ffd5b805180835260209291819084018484015e5f828201840152601f01601f1916010190565b9060206104af92818152019061047a565b90565b3461038a575f36600319011261038a576040515f6003546104d281611896565b8084529060018116908115610568575060011461050a575b610506836104fa81850382610614565b6040519182918261049e565b0390f35b60035f9081527fc2575a0e9e593c00f959f8c92f12db2869c3395a3b0502d05e2516446f71f85b939250905b80821061054e575090915081016020016104fa6104ea565b919260018160209254838588010152019101909291610536565b60ff191660208086019190915291151560051b840190910191506104fa90506104ea565b3461038a57602036600319011261038a576004355f526004602052602060018060a01b0360405f205416604051908152f35b600435906001600160a01b038216820361038a57565b602435906001600160a01b038216820361038a57565b604435906001600160a01b038216820361038a57565b634e487b7160e01b5f52604160045260245ffd5b90601f801991011681019081106001600160401b0382111761063557604052565b610600565b60405190610649604083610614565b565b6001600160401b03811161063557601f01601f191660200190565b9291926106728261064b565b916106806040519384610614565b82948184528183011161038a578281602093845f960137010152565b9080601f8301121561038a578160206104af93359101610666565b3461038a57608036600319011261038a576106d06105be565b506106d96105d4565b506064356001600160401b03811161038a576106f990369060040161069c565b50604051630a85bd0160e11b8152602090f35b6001600160401b0381116106355760051b60200190565b9080601f8301121561038a5781359061073b8261070c565b926107496040519485610614565b82845260208085019360051b82010191821161038a57602001915b8183106107715750505090565b82356001600160a01b038116810361038a57815260209283019201610764565b9080601f8301121561038a5781356107a88161070c565b926107b66040519485610614565b81845260208085019260051b82010192831161038a57602001905b8282106107de5750505090565b81358152602091820191016107d1565b9080601f8301121561038a5781356108058161070c565b926108136040519485610614565b81845260208085019260051b8201019183831161038a5760208201905b83821061083f57505050505090565b81356001600160401b03811161038a576020916108618784809488010161069c565b815201910190610830565b608060031982011261038a576004356001600160401b03811161038a578161089691600401610723565b916024356001600160401b03811161038a57826108b591600401610791565b91604435906001600160401b03821161038a576108d4916004016107ee565b9060643590565b3461038a576108fd6108f86108ef3661086c565b92919091611f81565b6120cd565b50634844252360e11b5f5260045ffd5b6109256109193661086c565b81838594969395611f81565b9160209161093460308561214d565b5061095d61094a855f52600460205260405f2090565b805460ff60f01b1916600160f01b179055565b5f925b50906105069461096f926121e2565b806109bf575b6109b6575b6040518181527f712ae1383f79ac853f8d882153778e0260ef8f03b504e2866e0593e04d2b291f90602090a16040519081529081906020820190565b5f60055561097a565b506109df6109db6005546001600160801b0381169060801c1490565b1590565b610975565b8351811015610a445760019030610a1a610a0e610a018489611963565b516001600160a01b031690565b6001600160a01b031690565b14610a26575b016109e4565b610a3f610a338288611963565b5189815191012061218b565b610a20565b50939450929190610506610960565b3461038a57602036600319011261038a576004355f526004602052602065ffffffffffff60405f205460a01c16604051908152f35b3461038a575f36600319011261038a5760206040517f3e83946653575f9a39005e1545185629e92736b7528ab20ca3816f315424a8118152f35b3461038a575f36600319011261038a57602065ffffffffffff60085416604051908152f35b634e487b7160e01b5f52602160045260245ffd5b6008811015610b0957602452565b610ae7565b3461038a57602036600319011261038a57610b2a60043561197c565b6040516008821015610b09576020918152f35b3461038a57604036600319011261038a57602060ff610b83600435610b606105d4565b905f5260098452600360405f20019060018060a01b03165f5260205260405f2090565b54166040519015158152f35b3461038a57610b9d3661086c565b92610bad84838584969596611f81565b610bb68161197c565b6008811015610b09571580610c5d575b15610c4757610506610bda86868686611f81565b610be5603b8261214d565b50610bf8815f52600460205260405f2090565b80546001600160f81b0316600160f81b1790556040518181527f789cf55be980739dad1d0699b93b58e806b51c9d96619bfa8fe0a28abaa7b30c90602090a16040519081529081906020820190565b638fe5d8a960e01b5f526004523360245260445ffd5b50805f52600460205260018060a01b0360405f2054163314610bc6565b3461038a575f36600319011261038a57610506610c95611af0565b60405191829160208352602083019061047a565b3461038a57602036600319011261038a576004355f526009602052606060405f20805490600260018201549101549060405192835260208301526040820152f35b3461038a575f36600319011261038a57610506604051610d0b604082610614565b60018152603160f81b602082015260405191829160208352602083019061047a565b6024359060ff8216820361038a57565b3461038a57604036600319011261038a576020610d76600435610d5e610d2d565b60405191610d6c8584610614565b5f835233906122bd565b604051908152f35b9181601f8401121561038a578235916001600160401b03831161038a576020838186019501011161038a57565b3461038a5760c036600319011261038a57600435610dc7610d2d565b90610dd06105ea565b906064356001600160401b03811161038a57610df0903690600401610d7e565b6084356001600160401b03811161038a57610e0f90369060040161069c565b9160a435946001600160401b03861161038a5761050696610e37610e3d97369060040161069c565b95611bbf565b6040519081529081906020820190565b3461038a57608036600319011261038a57600435610e69610d2d565b906044356001600160401b03811161038a57610e89903690600401610d7e565b9190926064356001600160401b03811161038a57610ec294610eb2610eba92369060040161069c565b943691610666565b91339061233a565b604051908152602090f35b3461038a57602036600319011261038a576020610d76600435612475565b65ffffffffffff81160361038a57565b3461038a57602036600319011261038a57600435610f1881610eeb565b610f20612085565b6008547fc565b045403dc03c2eea82b81a0465edad9e2e7fc4d97e11421c209da93d7a93604065ffffffffffff81519481851686521693846020820152a165ffffffffffff191617600855005b3461038a57606036600319011261038a57600435610f89610d2d565b90604435906001600160401b03821161038a57602092610fba610fb3610d76943690600401610d7e565b3691610666565b9133906122bd565b3461038a57608036600319011261038a576004356001600160401b03811161038a57610ff2903690600401610723565b6024356001600160401b03811161038a57611011903690600401610791565b906044356001600160401b03811161038a576110319036906004016107ee565b90606435916001600160401b03831161038a573660238401121561038a576105069361106a610e3d943690602481600401359101610666565b92611cc3565b3461038a57602036600319011261038a576001600160a01b036110916105be565b165f526002602052602060405f2054604051908152f35b90602080835192838152019201905f5b8181106110c55750505090565b82518452602093840193909201916001016110b8565b3461038a575f36600319011261038a5761117d6111177f0000000000000000000000000000000000000000000000000000000000000000612cc8565b6105066111437f0000000000000000000000000000000000000000000000000000000000000000612d27565b61118b60405191611155602084610614565b5f808452366020850137604051958695600f60f81b875260e0602088015260e087019061047a565b90858203604087015261047a565b904660608501523060808501525f60a085015283820360c08501526110a8565b3461038a57608036600319011261038a576004356111c7610d2d565b906111d06105ea565b916064356001600160401b03811161038a576109db6111f661128492369060040161069c565b6001600160a01b0386165f90815260026020526040902080546001810190915561127e9060405160208101917ff2aad550cf55f045cb27e9c559f9889fdfb6e6cdaa032301d6ea397784ae51d7835288604083015260ff8816606083015260018060a01b038a16608083015260a082015260a0815261127660c082610614565b5190206129b6565b866129e6565b61129f5790610e3d9161050693611299611aa1565b926122bd565b6394ab6c0760e01b5f526001600160a01b03831660045260245b5ffd5b3461038a575f36600319011261038a5760206112d6611de4565b65ffffffffffff60405191168152f35b3461038a575f36600319011261038a57602060405160648152f35b3461038a57606036600319011261038a5761131a6105be565b6024356044356001600160401b03811161038a5761133c90369060040161069c565b50604051630748d63560e31b81526001600160a01b039283166004820152602481019190915290602090829060449082907f0000000000000000000000000000000000000000000000000000000000000000165afa80156113e257610506915f916113b3575b506040519081529081906020820190565b6113d5915060203d6020116113db575b6113cd8183610614565b810190611fe8565b5f6113a2565b503d6113c3565b611a96565b3461038a575f36600319011261038a5760206001600160d01b036114096128b2565b16604051908152f35b3461038a576020610d766108ef3661086c565b3461038a57602036600319011261038a5760206040515f8152f35b3461038a57602036600319011261038a576020610d766004355f52600460205265ffffffffffff600160405f2001541690565b3461038a575f36600319011261038a576020600754604051908152f35b3461038a5760a036600319011261038a576114a96105be565b506114b26105d4565b506044356001600160401b03811161038a576114d2903690600401610791565b506064356001600160401b03811161038a576114f2903690600401610791565b506084356001600160401b03811161038a5761151290369060040161069c565b5060405163bc197c8160e01b8152602090f35b3461038a57602036600319011261038a576020610d76600435611e77565b606036600319011261038a576115576105be565b6024356044356001600160401b03811161038a57610018925f9261158084933690600401610d7e565b919061158a612085565b826040519384928337810185815203925af16115a4611ebe565b906128f6565b3461038a575f36600319011261038a576105066040516115cb604082610614565b602081527f737570706f72743d627261766f2671756f72756d3d666f722c6162737461696e602082015260405191829160208352602083019061047a565b3461038a575f36600319011261038a5760206040517ff2aad550cf55f045cb27e9c559f9889fdfb6e6cdaa032301d6ea397784ae51d78152f35b3461038a57602036600319011261038a5760043563ffffffff81169081810361038a5761166e612085565b81156116d65769ffffffff000000000000907f7e3f7f0708a84de9203036abaa450dccc85ad5ff52f78c170f3edb55cf5e882860406008549481519063ffffffff8760301c1682526020820152a160301b169069ffffffff0000000000001916176008555f80f35b63f1cfbf0560e01b5f525f60045260245ffd5b3461038a57604036600319011261038a576117026105be565b6024355f604051611714602082610614565b52604051630748d63560e31b81526001600160a01b039283166004820152602481019190915290602090829060449082907f0000000000000000000000000000000000000000000000000000000000000000165afa80156113e257610506915f916113b357506040519081529081906020820190565b3461038a57602036600319011261038a576004356117a6612085565b60075460408051918252602082018390527fccb45da8d5717e6c4544694297c4ba5cf151d455c9bb0ed4fc7a38411bc0546191a1600755005b3461038a5760a036600319011261038a576117f86105be565b506118016105d4565b506084356001600160401b03811161038a5761182190369060040161069c565b5060405163f23a6e6160e01b8152602090f35b3461038a57602036600319011261038a576020610d76600435611ff7565b3461038a575f36600319011261038a576040517f00000000000000000000000000000000000000000000000000000000000000006001600160a01b03168152602090f35b90600182811c921680156118c4575b60208310146118b057565b634e487b7160e01b5f52602260045260245ffd5b91607f16916118a5565b5f92918154916118dd83611896565b808352926001811690811561193257506001146118f957505050565b5f9081526020812093945091925b838310611918575060209250010190565b600181602092949394548385870101520191019190611907565b915050602093945060ff929192191683830152151560051b010190565b634e487b7160e01b5f52603260045260245ffd5b80518210156119775760209160051b010190565b61194f565b61198e815f52600460205260405f2090565b5460f881901c9060f01c60ff16611a8f57611a89576119d56119ca6119bb835f52600460205260405f2090565b5460a01c65ffffffffffff1690565b65ffffffffffff1690565b8015611a75576119e66119ca611de4565b80911015611a6f576119f782611e77565b10611a025750600190565b611a0e6109db8261225e565b8015611a4c575b15611a205750600390565b611a3e905f52600460205265ffffffffffff600160405f2001541690565b611a4757600490565b600590565b50611a6a6109db825f52600960205260405f20600181015490541090565b611a15565b50505f90565b636ad0607560e01b5f52600482905260245ffd5b50600290565b5050600790565b6040513d5f823e3d90fd5b60405190611ab0602083610614565b5f8252565b60405190611ac4604083610614565b601d82527f6d6f64653d626c6f636b6e756d6265722666726f6d3d64656661756c740000006020830152565b604051634bf5d7e960e01b81525f816004817f00000000000000000000000000000000000000000000000000000000000000006001600160a01b03165afa5f9181611b44575b506104af57506104af611ab5565b9091503d805f833e611b568183610614565b81019060208183031261038a578051906001600160401b03821161038a570181601f8201121561038a57805190611b8c8261064b565b92611b9a6040519485610614565b8284526020838301011161038a57815f9260208093018386015e83010152905f611b36565b9390929196956109db611c7891611c728a611bdb368789610666565b6001600160a01b0382165f90815260026020526040902080546001810190915590602081519101208b5160208d0120906040519260208401947f3e83946653575f9a39005e1545185629e92736b7528ab20ca3816f315424a81186528d604086015260ff8d16606086015260018060a01b0316608085015260a084015260c083015260e082015260e0815261127661010082610614565b8a6129e6565b611c93576104af959691611c8d913691610666565b9261233a565b6394ab6c0760e01b5f526001600160a01b03871660045260245ffd5b634e487b7160e01b5f52601160045260245ffd5b9193929093611cd2823361256c565b15611dd1576007549485611cee575b6104af94955033936126e9565b5f1965ffffffffffff611cff611de4565b160165ffffffffffff8111611dcc5765ffffffffffff16955f604051611d26602082610614565b52604051630748d63560e31b815233600482015260248101979097526020876044817f00000000000000000000000000000000000000000000000000000000000000006001600160a01b03165afa9687156113e2575f97611dab575b50808710611d905750611ce1565b636121770b60e11b5f5233600452602487905260445260645ffd5b611dc591975060203d6020116113db576113cd8183610614565b955f611d82565b611caf565b63d9b3955760e01b5f523360045260245ffd5b6040516324776b7d60e21b81526020816004817f00000000000000000000000000000000000000000000000000000000000000006001600160a01b03165afa5f9181611e3a575b506104af57506104af43612bb2565b9091506020813d602011611e6f575b81611e5660209383610614565b8101031261038a5751611e6881610eeb565b905f611e2b565b3d9150611e49565b805f52600460205265ffffffffffff60405f205460a01c16905f52600460205263ffffffff60405f205460d01c160165ffffffffffff8111611dcc5765ffffffffffff1690565b3d15611ee8573d90611ecf8261064b565b91611edd6040519384610614565b82523d5f602084013e565b606090565b90602080835192838152019201905f5b818110611f0a5750505090565b82516001600160a01b0316845260209384019390920191600101611efd565b9080602083519182815201916020808360051b8301019401925f915b838310611f5457505050505090565b9091929394602080611f72600193601f19868203018752895161047a565b97019301930191939290611f45565b9290611fe291611fce611fbc94604051958694611faa602087019960808b5260a0880190611eed565b868103601f19016040880152906110a8565b848103601f1901606086015290611f29565b90608083015203601f198101835282610614565b51902090565b9081602091031261038a575190565b604051632394e7a360e21b815260048101829052906020826024817f00000000000000000000000000000000000000000000000000000000000000006001600160a01b03165afa9081156113e2576104af925f92612060575b5061205a90612475565b9061293a565b61205a91925061207e9060203d6020116113db576113cd8183610614565b9190612050565b33300361208e57565b6347096e4760e01b5f523360045260245ffd5b6008811015610b095760ff600191161b90565b600452606491906008811015610b09576024525f604452565b6120d68161197c565b9060106120e2836120a1565b16156120ec575090565b6331b75e4d60e01b5f526004526121039150610afb565b601060445260645ffd5b6121168161197c565b906002612122836120a1565b161561212c575090565b6331b75e4d60e01b5f526004526121439150610afb565b600260445260645ffd5b906121578261197c565b9181612162846120a1565b161561216d57505090565b6331b75e4d60e01b5f5260045261218382610afb565b60445260645ffd5b600554908160801c6001600160801b03806001830116931683146121d0575f52600660205260405f20556001600160801b036005549181199060801b16911617600555565b634e487b715f5260416020526024601cfd5b9291925f5b815181101561223c576001906122355f806001600160a01b0361220a8588611963565b51166122168589611963565b5190612222868c611963565b5191602083519301915af16115a4611ebe565b50016121e7565b5050509050565b9060018201809211611dcc57565b91908201809211611dcc57565b805f52600960205260405f20905f52600460205261228a65ffffffffffff60405f205460a01c16611ff7565b600260018301549201548201809211611dcc57111590565b5f19810191908211611dcc57565b91908203918211611dcc57565b916104af9391604051936122d2602086610614565b5f855261233a565b93909260ff612306936104af97958752166020860152604085015260a0606085015260a084019061047a565b91608081840391015261047a565b909260ff6080936104af969584521660208301526040820152816060820152019061047a565b929190926123478161210d565b50805f52600460205265ffffffffffff61236e60405f2065ffffffffffff905460a01c1690565b1693604051630748d63560e31b815260018060a01b03821695866004830152602482015260208160448160018060a01b037f0000000000000000000000000000000000000000000000000000000000000000165afa9081156113e2576123de9285915f93612454575b5084612a9a565b948051155f14612421575061241b7fb8e138887d0aa13bab447e82de9d5c1777041ecd21ca36ba824ff1e6c07ddda4938660405194859485612314565b0390a290565b61241b907fe2babfbac5889a709b63bb7f598b324e08bc5a4fb9ec647fb3cbc9ec07eb87129487604051958695866122da565b61246e91935060203d6020116113db576113cd8183610614565b915f6123d7565b65ffffffffffff9080612488600a612b77565b9491501611155f146124a257505b6001600160d01b031690565b6124ac9150612bb2565b600a54905f829160058411612518575b6124c89350600a61313a565b806124d457505f612496565b61250c6124e3612513926122a2565b600a5f527fc65a7bb8d6351c1cf70c95a316cc6a92839c986682d98bc35f958f4883f9d2a80190565b5460301c90565b612496565b919261252381612fdc565b8103908111611dcc576124c893600a5f5265ffffffffffff8260205f2001541665ffffffffffff8516105f1461255a5750916124bc565b92915061256690612243565b906124bc565b908051603481106125cc5760131981830101516001600160b01b03191669dc8f8d908f908c9a8dc360b01b016125cc576125ab91602919820190612c0d565b90159182156125b957505090565b6001600160a01b03918216911614919050565b505050600190565b906125de8261070c565b6125eb6040519182610614565b82815280926125fc601f199161070c565b01905f5b82811061260c57505050565b806060602080938501015201612600565b95999896979493919261265e9361265092885260018060a01b031660208801526101206040880152610120870190611eed565b9085820360608701526110a8565b968388036080850152815180895260208901906020808260051b8c01019401915f905b8282106126bd57505050506104af969750906126a49184820360a0860152611f29565b9360c083015260e082015261010081840391015261047a565b909192946020806126db6001938f601f19908203018652895161047a565b970192019201909291612681565b92909493919461270182516020840120878387611f81565b9584518251908181148015906128a7575b801561289f575b61288057505065ffffffffffff61273b6119bb895f52600460205260405f2090565b16612863579161285e917f7d84a6263ae0d98d3329bd7b46bb4e8d6f98cd35a7adb45c274c8b7fd5ebd5e0959493612796612774611de4565b65ffffffffffff61278f6119ca65ffffffffffff6008541690565b9116612251565b906127b56127ac63ffffffff60085460301c1690565b63ffffffff1690565b61283c6127ca8c5f52600460205260405f2090565b80546001600160a01b0319166001600160a01b038a161781556128136127ef86612bb2565b825465ffffffffffff60a01b191660a09190911b65ffffffffffff60a01b16178255565b61281c83612c9d565b815463ffffffff60d01b191660d09190911b63ffffffff60d01b16179055565b61285061284989516125d4565b9184612251565b936040519889988d8a61261d565b0390a1565b6112b9876128708161197c565b6331b75e4d60e01b5f52906120b4565b9151630447b05d60e41b5f908152600493909352602452604452606490fd5b508015612719565b508251811415612712565b600a54806128bf57505f90565b805f19810111611dcc57600a5f527fc65a7bb8d6351c1cf70c95a316cc6a92839c986682d98bc35f958f4883f9d2a7015460301c90565b909190610649575080511561290d57602081519101fd5b63d6bda27560e01b5f5260045ffd5b8115612926570490565b634e487b7160e01b5f52601260045260245ffd5b5f1982820990828102918280821091030390811561299b578160641115612994577f5c28f5c28f5c28f5c28f5c28f5c28f5c28f5c28f5c28f5c28f5c28f5c28f5c29936064910990828211900360fe1b910360021c170290565b60116129a6565b505060649004919050565b634e487b715f526020526024601cfd5b6042906129c1612e8c565b906040519161190160f01b8352600283015260228201522090565b60041115610b0957565b9190823b612a0e57906129f891612fa2565b50612a02816129dc565b1591826125b957505090565b915f92612a44612a5285946040519283916020830195630b135d3f60e11b8752602484015260406044840152606483019061047a565b03601f198101835282610614565b51915afa612a5e611ebe565b81612a8c575b81612a6d575090565b905060208180518101031261038a5760200151630b135d3f60e11b1490565b905060208151101590612a64565b612aaf909291925f52600960205260405f2090565b9160038301612ad8612ad183839060018060a01b03165f5260205260405f2090565b5460ff1690565b612b5b57612afc60ff9392612b09929060018060a01b03165f5260205260405f2090565b805460ff19166001179055565b1680612b205750612b1b828254612251565b905590565b60018103612b375750600101612b1b828254612251565b600203612b4c57600201612b1b828254612251565b6303599be160e11b5f5260045ffd5b6371c6af4960e01b5f526001600160a01b03821660045260245ffd5b80549081612b895750505f905f905f90565b815f19810111611dcc575f525f199060205f2001015460019165ffffffffffff82169160301c90565b65ffffffffffff8111612bca5765ffffffffffff1690565b6306dfcc6560e41b5f52603060045260245260445ffd5b908160011b9180830460021490151715611dcc57565b908160041b9180830460101490151715611dcc57565b9190825182118015612c94575b612c6d57612c2781612243565b821180612c76575b612c3a901515612be1565b60280180602811611dcc57612c4f82846122b0565b03612c6d57612c5d9261319e565b90916001600160a01b0390911690565b5050505f905f90565b50602081840101516001600160f01b03191661060f60f31b14612c2f565b50818111612c1a565b63ffffffff8111612cb15763ffffffff1690565b6306dfcc6560e41b5f52602060045260245260445ffd5b60ff8114612d0e5760ff811690601f8211612cff5760405191612cec604084610614565b6020808452838101919036833783525290565b632cd44ac360e21b5f5260045ffd5b506040516104af81612d20815f6118ce565b0382610614565b60ff8114612d4b5760ff811690601f8211612cff5760405191612cec604084610614565b506040516104af81612d208160016118ce565b908154600160401b8110156106355760018101808455811015611977575f9283526020928390208251929093015160301b65ffffffffffff191665ffffffffffff9290921691909117910155565b600a549192918015612e63576124e3612dc4916122a2565b908154612de0612dd98265ffffffffffff1690565b9160301c90565b9265ffffffffffff808416921691808311612e5457869203612e1e57612e1a92509065ffffffffffff82549181199060301b169116179055565b9190565b5050612e1a90612e3d612e2f61063a565b65ffffffffffff9092168252565b6001600160d01b03851660208201525b600a612d5e565b632520601d60e01b5f5260045ffd5b50612e8790612e73612e2f61063a565b6001600160d01b0384166020820152612e4d565b5f9190565b307f00000000000000000000000000000000000000000000000000000000000000006001600160a01b03161480612f79575b15612ee7577f000000000000000000000000000000000000000000000000000000000000000090565b60405160208101907f8b73c3c69bb8fe3d512ecc4cf759cc79239f7b179b0ffacaa9a75d522b39400f82527f000000000000000000000000000000000000000000000000000000000000000060408201527f000000000000000000000000000000000000000000000000000000000000000060608201524660808201523060a082015260a08152611fe260c082610614565b507f00000000000000000000000000000000000000000000000000000000000000004614612ebe565b8151919060418303612fd257612fcb9250602082015190606060408401519301515f1a90613248565b9192909190565b50505f9160029190565b60018111156104af57806001600160801b8210156130fd575b6130a361309961308f61308561307b6130716130606130aa9760048a600160401b6130af9c10156130f0575b6401000000008110156130e3575b620100008110156130d6575b6101008110156130c9575b60108110156130bc575b10156130b4575b60030260011c90565b61306a818b61291c565b0160011c90565b61306a818a61291c565b61306a818961291c565b61306a818861291c565b61306a818761291c565b61306a818661291c565b809361291c565b821190565b900390565b60011b613057565b60041c9160021b91613050565b60081c9160041b91613046565b60101c9160081b9161303b565b60201c9160101b9161302f565b60401c9160201b91613021565b50506130af6130aa6130a361309961308f61308561307b6130716130606131248a60801c90565b9850600160401b9750612ff59650505050505050565b91905b83821061314a5750505090565b9091928083169080841860011c8201809211611dcc57845f5265ffffffffffff8260205f2001541665ffffffffffff8416105f1461318c5750925b919061313d565b93925061319890612243565b91613185565b9290926131aa84612243565b83118061322a575b6131c46131cb91949293941515612be1565b5f95612251565b915b8183106131dd5750505060019190565b9092919360ff6131fe6131f96020888601015160ff60f81b1690565b6132ca565b1690600f821161321f5790613214600192612bf7565b0194019192906131cd565b505f94508493505050565b50602084820101516001600160f01b03191661060f60f31b146131b2565b91907f7fffffffffffffffffffffffffffffff5d576e7357a4501ddfe92f46681b20a084116132bf579160209360809260ff5f9560405194855216868401526040830152606082015282805260015afa156113e2575f516001600160a01b038116156132b557905f905f90565b505f906001905f90565b5050505f9160039190565b60f81c602f811180613332575b156132e657602f190160ff1690565b6060811180613328575b156132ff576056190160ff1690565b604081118061331e575b15613318576036190160ff1690565b5060ff90565b5060478110613309565b50606781106132f0565b50603a81106132d756fea26469706673582212206ae4890aa4cc3ceb142fe5583b8ed7cd5bc78095c221ab4e057b17e050edf91864736f6c634300081c0033",
  "linkReferences": {},
  "deployedLinkReferences": {}
}