{
  "_format": "hh-sol-artifact-1",
  "contractName": "NexusToken",
  "sourceName": "contracts/NexusToken.sol",
  "abi": [
    {
      "inputs": [
        {
          "internalType": "address",
          "name": "initialOwner",
          "type": "address"
        },
        {
          "internalType": "address",
          "name": "_treasury",
          "type": "address"
        },
        {
          "internalType": "address",
          "name": "_liquidity",
          "type": "address"
        }
      ],
      "stateMutability": "nonpayable",
      "type": "constructor"
    },
    {
      "inputs": [
        {
          "internalType": "address",
          "name": "spender",
          "type": "address"
        },
        {
          "internalType": "uint256",
          "name": "allowance",
          "type": "uint256"
        },
        {
          "internalType": "uint256",
          "name": "needed",
          "type": "uint256"
        }
      ],
      "name": "ERC20InsufficientAllowance",
      "type": "error"
    },
    {
      "inputs": [
        {
          "internalType": "address",
          "name": "sender",
          "type": "address"
        },
        {
          "internalType": "uint256",
          "name": "balance",
          "type": "uint256"
        },
        {
          "internalType": "uint256",
          "name": "needed",
          "type": "uint256"
        }
      ],
      "name": "ERC20InsufficientBalance",
      "type": "error"
    },
    {
      "inputs": [
        {
          "internalType": "address",
          "name": "approver",
          "type": "address"
        }
      ],
      "name": "ERC20InvalidApprover",
      "type": "error"
    },
    {
      "inputs": [
        {
          "internalType": "address",
          "name": "receiver",
          "type": "address"
        }
      ],
      "name": "ERC20InvalidReceiver",
      "type": "error"
    },
    {
      "inputs": [
        {
          "internalType": "address",
          "name": "sender",
          "type": "address"
        }
      ],
      "name": "ERC20InvalidSender",
      "type": "error"
    },
    {
      "inputs": [
        {
          "internalType": "address",
          "name": "spender",
          "type": "address"
        }
      ],
      "name": "ERC20InvalidSpender",
      "type": "error"
    },
    {
      "inputs": [
        {
          "internalType": "address",
          "name": "owner",
          "type": "address"
        }
      ],
      "name": "OwnableInvalidOwner",
      "type": "error"
    },
    {
      "inputs": [
        {
          "internalType": "address",
          "name": "account",
          "type": "address"
        }
      ],
      "name": "OwnableUnauthorizedAccount",
      "type": "error"
    },
    {
      "anonymous": false,
      "inputs": [
        {
          "indexed": true,
          "internalType": "address",
          "name": "owner",
          "type": "address"
        },
        {
          "indexed": true,
          "internalType": "address",
          "name": "spender",
          "type": "address"
        },
        {
          "indexed": false,
          "internalType": "uint256",
          "name": "value",
          "type": "uint256"
        }
      ],
      "name": "Approval",
      "type": "event"
    },
    {
      "anonymous": false,
      "inputs": [
        {
          "indexed": false,
          "internalType": "uint256",
          "name": "newBuyFee",
          "type": "uint256"
        },
        {
          "indexed": false,
          "internalType": "uint256",
          "name": "newSellFee",
          "type": "uint256"
        }
      ],
      "name": "FeesUpdated",
      "type": "event"
    },
    {
      "anonymous": false,
      "inputs": [
        {
          "indexed": true,
          "internalType": "address",
          "name": "previousOwner",
          "type": "address"
        },
        {
          "indexed": true,
          "internalType": "address",
          "name": "newOwner",
          "type": "address"
        }
      ],
      "name": "OwnershipTransferred",
      "type": "event"
    },
    {
      "anonymous": false,
      "inputs": [
        {
          "indexed": true,
          "internalType": "address",
          "name": "from",
          "type": "address"
        },
        {
          "indexed": true,
          "internalType": "address",
          "name": "to",
          "type": "address"
        },
        {
          "indexed": false,
          "internalType": "uint256",
          "name": "value",
          "type": "uint256"
        }
      ],
      "name": "Transfer",
      "type": "event"
    },
    {
      "anonymous": false,
      "inputs": [
        {
          "indexed": false,
          "internalType": "address",
          "name": "newTreasury",
          "type": "address"
        },
        {
          "indexed": false,
          "internalType": "address",
          "name": "newLiquidity",
          "type": "address"
        }
      ],
      "name": "WalletsUpdated",
      "type": "event"
    },
    {
      "inputs": [],
      "name": "FEE_DENOMINATOR",
      "outputs": [
        {
          "internalType": "uint256",
          "name": "",
          "type": "uint256"
        }
      ],
      "stateMutability": "view",
      "type": "function"
    },
    {
      "inputs": [],
      "name": "MAX_SUPPLY",
      "outputs": [
        {
          "internalType": "uint256",
          "name": "",
          "type": "uint256"
        }
      ],
      "stateMutability": "view",
      "type": "function"
    },
    {
      "inputs": [
        {
          "internalType": "address",
          "name": "owner",
          "type": "address"
        },
        {
          "internalType": "address",
          "name": "spender",
          "type": "address"
        }
      ],
      "name": "allowance",
      "outputs": [
        {
          "internalType": "uint256",
          "name": "",
          "type": "uint256"
        }
      ],
      "stateMutability": "view",
      "type": "function"
    },
    {
      "inputs": [
        {
          "internalType": "address",
          "name": "spender",
          "type": "address"
        },
        {
          "internalType": "uint256",
          "name": "value",
          "type": "uint256"
        }
      ],
      "name": "approve",
      "outputs": [
        {
          "internalType": "bool",
          "name": "",
          "type": "bool"
        }
      ],
      "stateMutability": "nonpayable",
      "type": "function"
    },
    {
      "inputs": [
        {
          "internalType": "address",
          "name": "account",
          "type": "address"
        }
      ],
      "name": "balanceOf",
      "outputs": [
        {
          "internalType": "uint256",
          "name": "",
          "type": "uint256"
        }
      ],
      "stateMutability": "view",
      "type": "function"
    },
    {
      "inputs": [],
      "name": "buyFee",
      "outputs": [
        {
          "internalType": "uint256",
          "name": "",
          "type": "uint256"
        }
      ],
      "stateMutability": "view",
      "type": "function"
    },
    {
      "inputs": [],
      "name": "decimals",
      "outputs": [
        {
          "internalType": "uint8",
          "name": "",
          "type": "uint8"
        }
      ],
      "stateMutability": "view",
      "type": "function"
    },
    {
      "inputs": [
        {
          "internalType": "address",
          "name": "account",
          "type": "address"
        },
        {
          "internalType": "bool",
          "name": "excluded",
          "type": "bool"
        }
      ],
      "name": "excludeFromFees",
      "outputs": [],
      "stateMutability": "nonpayable",
      "type": "function"
    },
    {
      "inputs": [
        {
          "internalType": "address",
          "name": "",
          "type": "address"
        }
      ],
      "name": "isExcludedFromFees",
      "outputs": [
        {
          "internalType": "bool",
          "name": "",
          "type": "bool"
        }
      ],
      "stateMutability": "view",
      "type": "function"
    },
    {
      "inputs": [],
      "name": "liquidityWallet",
      "outputs": [
        {
          "internalType": "address",
          "name": "",
          "type": "address"
        }
      ],
      "stateMutability": "view",
      "type": "function"
    },
    {
      "inputs": [],
      "name": "name",
      "outputs": [
        {
          "internalType": "string",
          "name": "",
          "type": "string"
        }
      ],
      "stateMutability": "view",
      "type": "function"
    },
    {
      "inputs": [],
      "name": "owner",
      "outputs": [
        {
          "internalType": "address",
          "name": "",
          "type": "address"
        }
      ],
      "stateMutability": "view",
      "type": "function"
    },
    {
      "inputs": [],
      "name": "renounceOwnership",
      "outputs": [],
      "stateMutability": "nonpayable",
      "type": "function"
    },
    {
      "inputs": [],
      "name": "sellFee",
      "outputs": [
        {
          "internalType": "uint256",
          "name": "",
          "type": "uint256"
        }
      ],
      "stateMutability": "view",
      "type": "function"
    },
    {
      "inputs": [],
      "name": "symbol",
      "outputs": [
        {
          "internalType": "string",
          "name": "",
          "type": "string"
        }
      ],
      "stateMutability": "view",
      "type": "function"
    },
    {
      "inputs": [],
      "name": "totalSupply",
      "outputs": [
        {
          "internalType": "uint256",
          "name": "",
          "type": "uint256"
        }
      ],
      "stateMutability": "view",
      "type": "function"
    },
    {
      "inputs": [
        {
          "internalType": "address",
          "name": "to",
          "type": "address"
        },
        {
          "internalType": "uint256",
          "name": "value",
          "type": "uint256"
        }
      ],
      "name": "transfer",
      "outputs": [
        {
          "internalType": "bool",
          "name": "",
          "type": "bool"
        }
      ],
      "stateMutability": "nonpayable",
      "type": "function"
    },
    {
      "inputs": [
        {
          "internalType": "address",
          "name": "from",
          "type": "address"
        },
        {
          "internalType": "address",
          "name": "to",
          "type": "address"
        },
        {
          "internalType": "uint256",
          "name": "value",
          "type": "uint256"
        }
      ],
      "name": "transferFrom",
      "outputs": [
        {
          "internalType": "bool",
          "name": "",
          "type": "bool"
        }
      ],
      "stateMutability": "nonpayable",
      "type": "function"
    },
    {
      "inputs": [
        {
          "internalType": "address",
          "name": "newOwner",
          "type": "address"
        }
      ],
      "name": "transferOwnership",
      "outputs": [],
      "stateMutability": "nonpayable",
      "type": "function"
    },
    {
      "inputs": [],
      "name": "treasuryWallet",
      "outputs": [
        {
          "internalType": "address",
          "name": "",
          "type": "address"
        }
      ],
      "stateMutability": "view",
      "type": "function"
    },
    {
      "inputs": [
        {
          "internalType": "uint256",
          "name": "_buyFee",
          "type": "uint256"
        },
        {
          "internalType": "uint256",
          "name": "_sellFee",
          "type": "uint256"
        }
      ],
      "name": "updateFees",
      "outputs": [],
      "stateMutability": "nonpayable",
      "type": "function"
    },
    {
      "inputs": [
        {
          "internalType": "address",
          "name": "_treasury",
          "type": "address"
        },
        {
          "internalType": "address",
          "name": "_liquidity",
          "type": "address"
        }
      ],
      "name": "updateWallets",
      "outputs": [],
      "stateMutability": "nonpayable",
      "type": "function"
    },
    {
      "inputs": [
        {
          "internalType": "address",
          "name": "",
          "type": "address"
        }
      ],
      "name": "volumeStats",
      "outputs": [
        {
          "internalType": "uint256",
          "name": "",
          "type": "uint256"
        }
      ],
      "stateMutability": "view",
      "type": "function"
    }
  ],
  "bytecode": "0x6080604052346104405761129a6060813803918261001c81610444565b9384928339810103126104405761003281610469565b9061004b604061004460208401610469565b9201610469565b916100566040610444565b92600b84526a2732bc3ab9902a37b5b2b760a91b60208501526100796040610444565b60058152644e4558555360d81b6020820152845190946001600160401b0382116103435760035490600182811c92168015610436575b60208310146103255781601f8493116103c8575b50602090601f8311600114610362575f92610357575b50508160011b915f199060031b1c1916176003555b83516001600160401b03811161034357600454600181811c91168015610339575b602082101461032557601f81116102c2575b50602094601f821160011461025f579481929394955f92610254575b50508160011b915f199060031b1c1916176004555b6001600160a01b03821690811561024157600580546001600160a01b031981168417909155610232949083906001600160a01b03167f8be0079c531659141344cd1fd0a4f28419497f9722a3daafe3b4186f6b6457e05f80a361012c6008819055600955600680546001600160a01b039283166001600160a01b031991821681179092556007805494909316931683179091555f928352600a6020526040808420805460ff19908116600190811790925530865282862080548216831790559285528185208054841682179055928452909220805490921617905561049e565b604051610c2890816106528239f35b631e4fbdf760e01b5f525f60045260245ffd5b015190505f8061013d565b601f1982169560045f52805f20915f5b8881106102aa57508360019596979810610292575b505050811b01600455610152565b01515f1960f88460031b161c191690555f8080610284565b9192602060018192868501518155019401920161026f565b60045f527f8a35acfbc15ff81a39ae7d344fd709f28e8600b4aa8c65c6b64bfe7fe36bd19b601f830160051c8101916020841061031b575b601f0160051c01905b8181106103105750610121565b5f8155600101610303565b90915081906102fa565b634e487b7160e01b5f52602260045260245ffd5b90607f169061010f565b634e487b7160e01b5f52604160045260245ffd5b015190505f806100d9565b60035f9081528281209350601f198516905b8181106103b05750908460019594939210610398575b505050811b016003556100ee565b01515f1960f88460031b161c191690555f808061038a565b92936020600181928786015181550195019301610374565b60035f529091507fc2575a0e9e593c00f959f8c92f12db2869c3395a3b0502d05e2516446f71f85b601f840160051c8101916020851061042c575b90601f859493920160051c01905b81811061041e57506100c3565b5f8155849350600101610411565b9091508190610403565b91607f16916100af565b5f80fd5b6040519190601f01601f191682016001600160401b0381118382101761034357604052565b51906001600160a01b038216820361044057565b9190820180921161048a57565b634e487b7160e01b5f52601160045260245ffd5b5f8052600a6020527f13da86008ba1c6922daee3e07db95305ef49ebced9f5467a0b8613fcc6b343e3546a52b7d2dcc80cd2e40000009060ff168015610578575b61056c57600854808202908282040361048a57612710900480610545575b509061050a82825f610599565b5f8052600b60205260405f2061052183825461047d565b905560018060a01b03165f52600b60205261054160405f2091825461047d565b9055565b60065461055d9082906001600160a01b03165f610599565b810390811161048a575f6104fd565b610576915f610599565b565b506001600160a01b0382165f908152600a602052604090205460ff166104df565b6001600160a01b031690816105ff5760205f51602061127a5f395f51905f52916105c58560025461047d565b6002555b6001600160a01b031693846105ea5780600254036002555b604051908152a3565b845f525f825260405f208181540190556105e1565b815f525f60205260405f2054838110610636575f51602061127a5f395f51905f529184602092855f525f84520360405f20556105c9565b91905063391434e360e21b5f5260045260245260445260645ffdfe6080806040526004361015610012575f80fd5b5f3560e01c90816306fdde031461086d57508063095ea7b3146107eb57806318160ddd146107ce57806323b872dd146106ef5780632b14ca56146106d2578063313ce567146106b757806332cb6b0c146106925780634626402b1461066a578063470624021461064d5780634fbee193146106105780636db794371461056557806370a082311461052e578063715018a6146104d35780637358f54a1461049b5780638da5cb5b1461047357806395d89b4114610358578063a9059cbb14610327578063c0246668146102d4578063d4698016146102ac578063d73792a914610290578063dd62ed3e14610240578063e8ba854f146101a35763f2fde38b14610119575f80fd5b3461019f57602036600319011261019f57610132610966565b61013a6109e3565b6001600160a01b0316801561018c57600580546001600160a01b0319811683179091556001600160a01b03167f8be0079c531659141344cd1fd0a4f28419497f9722a3daafe3b4186f6b6457e05f80a3005b631e4fbdf760e01b5f525f60045260245ffd5b5f80fd5b3461019f57604036600319011261019f577f316af92955f23ddbd4c570a5f8cda8a10b192f24d8f58524deb2fcb03a8bc79460406101df610966565b6101e761097c565b906101f06109e3565b60018060a01b031690816bffffffffffffffffffffffff60a01b600654161760065560018060a01b0316806bffffffffffffffffffffffff60a01b600754161760075582519182526020820152a1005b3461019f57604036600319011261019f57610259610966565b61026161097c565b6001600160a01b039182165f908152600160209081526040808320949093168252928352819020549051908152f35b3461019f575f36600319011261019f5760206040516127108152f35b3461019f575f36600319011261019f576007546040516001600160a01b039091168152602090f35b3461019f57604036600319011261019f576102ed610966565b6024359081151580920361019f576103036109e3565b60018060a01b03165f52600a60205260405f209060ff801983541691161790555f80f35b3461019f57604036600319011261019f5761034d610343610966565b6024359033610992565b602060405160018152f35b3461019f575f36600319011261019f576040515f6004548060011c90600181168015610469575b6020831081146104555782855290811561043957506001146103e4575b50819003601f01601f191681019067ffffffffffffffff8211818310176103d0576103cc8291826040528261093c565b0390f35b634e487b7160e01b5f52604160045260245ffd5b905060045f527f8a35acfbc15ff81a39ae7d344fd709f28e8600b4aa8c65c6b64bfe7fe36bd19b5f905b8282106104235750602091508201018261039c565b600181602092548385880101520191019061040e565b90506020925060ff191682840152151560051b8201018261039c565b634e487b7160e01b5f52602260045260245ffd5b91607f169161037f565b3461019f575f36600319011261019f576005546040516001600160a01b039091168152602090f35b3461019f57602036600319011261019f576001600160a01b036104bc610966565b165f52600b602052602060405f2054604051908152f35b3461019f575f36600319011261019f576104eb6109e3565b600580546001600160a01b031981169091555f906001600160a01b03167f8be0079c531659141344cd1fd0a4f28419497f9722a3daafe3b4186f6b6457e08280a3005b3461019f57602036600319011261019f576001600160a01b0361054f610966565b165f525f602052602060405f2054604051908152f35b3461019f57604036600319011261019f576004356024356105846109e3565b6103e882111580610604575b156105cf57816040917f5c6323bf1c2d7aaea2c091a4751c1c87af7f2864650c336507a77d0557af37a1936008558060095582519182526020820152a1005b60405162461bcd60e51b815260206004820152600d60248201526c08ccacae640e8dede40d0d2ced609b1b6044820152606490fd5b506103e8811115610590565b3461019f57602036600319011261019f576001600160a01b03610631610966565b165f52600a602052602060ff60405f2054166040519015158152f35b3461019f575f36600319011261019f576020600854604051908152f35b3461019f575f36600319011261019f576006546040516001600160a01b039091168152602090f35b3461019f575f36600319011261019f5760206040516a52b7d2dcc80cd2e40000008152f35b3461019f575f36600319011261019f57602060405160128152f35b3461019f575f36600319011261019f576020600954604051908152f35b3461019f57606036600319011261019f57610708610966565b61071061097c565b6001600160a01b0382165f818152600160209081526040808320338452909152902054909260443592915f19811061074e575b5061034d9350610992565b8381106107b35784156107a057331561078d5761034d945f52600160205260405f2060018060a01b0333165f526020528360405f209103905584610743565b634a1406b160e11b5f525f60045260245ffd5b63e602df0560e01b5f525f60045260245ffd5b8390637dc7a0d960e11b5f523360045260245260445260645ffd5b3461019f575f36600319011261019f576020600254604051908152f35b3461019f57604036600319011261019f57610804610966565b6024359033156107a0576001600160a01b031690811561078d57335f52600160205260405f20825f526020528060405f20556040519081527f8c5be1e5ebec7d5bd14f71427d1e84f3dd0314c0f7b2291e5b200ac8c7c3b92560203392a3602060405160018152f35b3461019f575f36600319011261019f575f6003548060011c90600181168015610932575b6020831081146104555782855290811561043957506001146108dd5750819003601f01601f191681019067ffffffffffffffff8211818310176103d0576103cc8291826040528261093c565b905060035f527fc2575a0e9e593c00f959f8c92f12db2869c3395a3b0502d05e2516446f71f85b5f905b82821061091c5750602091508201018261039c565b6001816020925483858801015201910190610907565b91607f1691610891565b602060409281835280519182918282860152018484015e5f828201840152601f01601f1916010190565b600435906001600160a01b038216820361019f57565b602435906001600160a01b038216820361019f57565b91906001600160a01b038316156109d0576001600160a01b038116156109bd576109bb92610a2b565b565b63ec442f0560e01b5f525f60045260245ffd5b634b637e8f60e11b5f525f60045260245ffd5b6005546001600160a01b031633036109f757565b63118cdaa760e01b5f523360045260245ffd5b91908201809211610a1757565b634e487b7160e01b5f52601160045260245ffd5b6001600160a01b0381165f818152600a602052604090205490919060ff168015610af3575b610ae757600854808502908582041485151715610a1757612710900480610ab8575b508383610a7e92610b14565b5f52600b60205260405f20610a94838254610a0a565b905560018060a01b03165f52600b602052610ab460405f20918254610a0a565b9055565b60065493949193610ad49082906001600160a01b031686610b14565b8103908111610a17579291610a7e610a72565b6109bb93929150610b14565b506001600160a01b0383165f908152600a602052604090205460ff16610a50565b6001600160a01b03169081610b8d5760207fddf252ad1be2c89b69c2b068fc378daa952ba7f163c4a11628f55a4df523b3ef91610b5385600254610a0a565b6002555b6001600160a01b03169384610b785780600254036002555b604051908152a3565b845f525f825260405f20818154019055610b6f565b815f525f60205260405f2054838110610bd7577fddf252ad1be2c89b69c2b068fc378daa952ba7f163c4a11628f55a4df523b3ef9184602092855f525f84520360405f2055610b57565b91905063391434e360e21b5f5260045260245260445260645ffdfea26469706673582212206d198cc256817db23724e8f17f167c41d7a5b56b65bebb53832c2e72de72487464736f6c634300081c0033ddf252ad1be2c89b69c2b068fc378daa952ba7f163c4a11628f55a4df523b3ef",
  "linkReferences": {},
  "deployedLinkReferences": {}
}