{
  "_format": "hh-sol-artifact-1",
  "contractName": "NexusSwap",
  "sourceName": "contracts/NexusSwap.sol",
  "abi": [
    {
      "inputs": [
        {
          "internalType": "address",
          "name": "_tokenA",
          "type": "address"
        },
        {
          "internalType": "address",
          "name": "_tokenB",
          "type": "address"
        },
        {
          "internalType": "address",
          "name": "_treasury",
          "type": "address"
        }
      ],
      "stateMutability": "nonpayable",
      "type": "constructor"
    },
    {
      "inputs": [
        {
          "internalType": "address",
          "name": "owner",
          "type": "address"
        }
      ],
      "name": "OwnableInvalidOwner",
      "type": "error"
    },
    {
      "inputs": [
        {
          "internalType": "address",
          "name": "account",
          "type": "address"
        }
      ],
      "name": "OwnableUnauthorizedAccount",
      "type": "error"
    },
    {
      "inputs": [],
      "name": "ReentrancyGuardReentrantCall",
      "type": "error"
    },
    {
      "anonymous": false,
      "inputs": [
        {
          "indexed": true,
          "internalType": "address",
          "name": "provider",
          "type": "address"
        },
        {
          "indexed": false,
          "internalType": "uint256",
          "name": "amountA",
          "type": "uint256"
        },
        {
          "indexed": false,
          "internalType": "uint256",
          "name": "amountB",
          "type": "uint256"
        }
      ],
      "name": "LiquidityAdded",
      "type": "event"
    },
    {
      "anonymous": false,
      "inputs": [
        {
          "indexed": true,
          "internalType": "address",
          "name": "provider",
          "type": "address"
        },
        {
          "indexed": false,
          "internalType": "uint256",
          "name": "amountA",
          "type": "uint256"
        },
        {
          "indexed": false,
          "internalType": "uint256",
          "name": "amountB",
          "type": "uint256"
        }
      ],
      "name": "LiquidityRemoved",
      "type": "event"
    },
    {
      "anonymous": false,
      "inputs": [
        {
          "indexed": true,
          "internalType": "address",
          "name": "previousOwner",
          "type": "address"
        },
        {
          "indexed": true,
          "internalType": "address",
          "name": "newOwner",
          "type": "address"
        }
      ],
      "name": "OwnershipTransferred",
      "type": "event"
    },
    {
      "anonymous": false,
      "inputs": [
        {
          "indexed": true,
          "internalType": "address",
          "name": "user",
          "type": "address"
        },
        {
          "indexed": false,
          "internalType": "address",
          "name": "tokenIn",
          "type": "address"
        },
        {
          "indexed": false,
          "internalType": "uint256",
          "name": "amountIn",
          "type": "uint256"
        },
        {
          "indexed": false,
          "internalType": "uint256",
          "name": "amountOut",
          "type": "uint256"
        }
      ],
      "name": "Swap",
      "type": "event"
    },
    {
      "inputs": [
        {
          "internalType": "uint256",
          "name": "amountA",
          "type": "uint256"
        },
        {
          "internalType": "uint256",
          "name": "amountB",
          "type": "uint256"
        }
      ],
      "name": "addLiquidity",
      "outputs": [],
      "stateMutability": "nonpayable",
      "type": "function"
    },
    {
      "inputs": [],
      "name": "feeBps",
      "outputs": [
        {
          "internalType": "uint256",
          "name": "",
          "type": "uint256"
        }
      ],
      "stateMutability": "view",
      "type": "function"
    },
    {
      "inputs": [],
      "name": "owner",
      "outputs": [
        {
          "internalType": "address",
          "name": "",
          "type": "address"
        }
      ],
      "stateMutability": "view",
      "type": "function"
    },
    {
      "inputs": [],
      "name": "renounceOwnership",
      "outputs": [],
      "stateMutability": "nonpayable",
      "type": "function"
    },
    {
      "inputs": [],
      "name": "reserveA",
      "outputs": [
        {
          "internalType": "uint256",
          "name": "",
          "type": "uint256"
        }
      ],
      "stateMutability": "view",
      "type": "function"
    },
    {
      "inputs": [],
      "name": "reserveB",
      "outputs": [
        {
          "internalType": "uint256",
          "name": "",
          "type": "uint256"
        }
      ],
      "stateMutability": "view",
      "type": "function"
    },
    {
      "inputs": [
        {
          "internalType": "uint256",
          "name": "_feeBps",
          "type": "uint256"
        }
      ],
      "name": "setFee",
      "outputs": [],
      "stateMutability": "nonpayable",
      "type": "function"
    },
    {
      "inputs": [
        {
          "internalType": "address",
          "name": "_treasury",
          "type": "address"
        }
      ],
      "name": "setTreasury",
      "outputs": [],
      "stateMutability": "nonpayable",
      "type": "function"
    },
    {
      "inputs": [
        {
          "internalType": "address",
          "name": "tokenIn",
          "type": "address"
        },
        {
          "internalType": "address",
          "name": "tokenOut",
          "type": "address"
        },
        {
          "internalType": "uint256",
          "name": "amountIn",
          "type": "uint256"
        },
        {
          "internalType": "uint256",
          "name": "minAmountOut",
          "type": "uint256"
        },
        {
          "internalType": "bool",
          "name": "isExternal",
          "type": "bool"
        }
      ],
      "name": "swap",
      "outputs": [
        {
          "internalType": "uint256",
          "name": "amountOut",
          "type": "uint256"
        }
      ],
      "stateMutability": "payable",
      "type": "function"
    },
    {
      "inputs": [],
      "name": "tokenA",
      "outputs": [
        {
          "internalType": "contract IERC20",
          "name": "",
          "type": "address"
        }
      ],
      "stateMutability": "view",
      "type": "function"
    },
    {
      "inputs": [],
      "name": "tokenB",
      "outputs": [
        {
          "internalType": "contract IERC20",
          "name": "",
          "type": "address"
        }
      ],
      "stateMutability": "view",
      "type": "function"
    },
    {
      "inputs": [
        {
          "internalType": "address",
          "name": "newOwner",
          "type": "address"
        }
      ],
      "name": "transferOwnership",
      "outputs": [],
      "stateMutability": "nonpayable",
      "type": "function"
    },
    {
      "inputs": [],
      "name": "treasury",
      "outputs": [
        {
          "internalType": "address",
          "name": "",
          "type": "address"
        }
      ],
      "stateMutability": "view",
      "type": "function"
    },
    {
      "stateMutability": "payable",
      "type": "receive"
    }
  ],
  "bytecode": "0x60803461011557601f610cc738819003918201601f19168301916001600160401b0383118484101761011957808492606094604052833981010312610115576100478161012d565b9061006060406100596020840161012d565b920161012d565b903315610102575f8054336001600160a01b0319821681178355604051959290916001600160a01b0316907f8be0079c531659141344cd1fd0a4f28419497f9722a3daafe3b4186f6b6457e09080a360018055601e600655600280546001600160a01b03199081166001600160a01b039384161790915560038054821693831693909317909255600780549092169216919091179055610b8590816101428239f35b631e4fbdf760e01b5f525f60045260245ffd5b5f80fd5b634e487b7160e01b5f52604160045260245ffd5b51906001600160a01b03821682036101155756fe608080604052600436101561001c575b50361561001a575f80fd5b005b5f3560e01c9081630fc63d1014610a025750806319e36f3b146109e557806324a9d853146109c85780635f64b55b146109a057806361d027b31461097857806369fe0e2d1461091a578063715018a6146108c35780638da5cb5b1461089c5780639cd441da14610712578063b14ee700146101e0578063dc5fa6c5146101c3578063f0f44260146101405763f2fde38b146100b7575f61000f565b3461013c57602036600319011261013c576100d0610a25565b6100d8610b09565b6001600160a01b03168015610129575f80546001600160a01b03198116831782556001600160a01b0316907f8be0079c531659141344cd1fd0a4f28419497f9722a3daafe3b4186f6b6457e09080a3005b631e4fbdf760e01b5f525f60045260245ffd5b5f80fd5b3461013c57602036600319011261013c57610159610a25565b610161610b09565b6001600160a01b0316801561018c576bffffffffffffffffffffffff60a01b60075416176007555f80f35b60405162461bcd60e51b815260206004820152600f60248201526e496e76616c6964206164647265737360881b6044820152606490fd5b3461013c575f36600319011261013c576020600454604051908152f35b60a036600319011261013c576101f4610a25565b6024356001600160a01b0381169081900361013c57604435916084358015150361013c57610220610b2f565b82156106dc576001600160a01b0316801591821561068257833403610647575b6002546001600160a01b0316821492831561063c576004546005545b61271061026b60065489610aaa565b046102768189610abd565b9381610564575b5050828215801561055c575b1561052757915050935b60643585106104ee57156104cb576102ad90600454610a89565b6004556102bc83600554610abd565b6005555b806103a95750814710610364575f80808085335af16102dd610aca565b5015610329576020925b604051918252838201528160408201527ffa2dda1cc1b86e41239702756b13effbc1a092b5c57e3ad320fbe4f3b13fe23560603392a260018055604051908152f35b60405162461bcd60e51b8152602060048201526013602482015272115512081d1c985b9cd9995c8819985a5b1959606a1b6044820152606490fd5b60405162461bcd60e51b815260206004820152601a60248201527f496e73756666696369656e7420455448206c69717569646974790000000000006044820152606490fd5b926040516370a0823160e01b8152306004820152602081602481885afa80156104465784915f91610496575b50106104515760405163a9059cbb60e01b81523360048201526024810184905293602090859060449082905f905af193841561044657602094610419575b506102e7565b61043890853d871161043f575b6104308183610a3b565b810190610a71565b5084610413565b503d610426565b6040513d5f823e3d90fd5b60405162461bcd60e51b815260206004820152601c60248201527f496e73756666696369656e7420746f6b656e206c6971756964697479000000006044820152606490fd5b9150506020813d6020116104c3575b816104b260209383610a3b565b8101031261013c57839051866103d5565b3d91506104a5565b6104d790600554610a89565b6005556104e683600454610abd565b6004556102c0565b60405162461bcd60e51b81526020600482015260116024820152700a6d8d2e0e0c2ceca40e8dede40d0d2ced607b1b6044820152606490fd5b61053461053a9282610aaa565b92610a89565b908115610548570493610293565b634e487b7160e01b5f52601260045260245ffd5b508115610289565b156105da576007545f918291829182916001600160a01b03165af1610587610aca565b5015610595575b878061027d565b60405162461bcd60e51b815260206004820152601760248201527f45544820666565207472616e73666572206661696c65640000000000000000006044820152606490fd5b60075460405163a9059cbb60e01b81526001600160a01b03909116600482015260248101919091526020816044815f8a5af180156104465761061d575b5061058e565b6106359060203d60201161043f576104308183610a3b565b5087610617565b60055460045461025c565b60405162461bcd60e51b815260206004820152601360248201527208aa89040c2dadeeadce840dad2e6dac2e8c6d606b1b6044820152606490fd5b6040516323b872dd60e01b8152336004820152306024820152604481018590526020816064815f875af18015610446576106bd575b50610240565b6106d59060203d60201161043f576104308183610a3b565b50846106b7565b60405162461bcd60e51b815260206004820152600e60248201526d125b9d985b1a5908185b5bdd5b9d60921b6044820152606490fd5b3461013c57604036600319011261013c57600435602435610731610b2f565b81151580610893575b1561085c576002546040516323b872dd60e01b81523360048201523060248201526044810184905290602090829060649082905f906001600160a01b03165af180156104465761083f575b506003546040516323b872dd60e01b81523360048201523060248201526044810183905290602090829060649082905f906001600160a01b03165af1801561044657610822575b506107d982600454610a89565b6004556107e881600554610a89565b60055560405191825260208201527fac1d76749e5447b7b16f5ab61447e1bd502f3bb4807af3b28e620d1700a6ee4560403392a260018055005b61083a9060203d60201161043f576104308183610a3b565b6107cc565b6108579060203d60201161043f576104308183610a3b565b610785565b60405162461bcd60e51b815260206004820152600f60248201526e496e76616c696420616d6f756e747360881b6044820152606490fd5b5080151561073a565b3461013c575f36600319011261013c575f546040516001600160a01b039091168152602090f35b3461013c575f36600319011261013c576108db610b09565b5f80546001600160a01b0319811682556001600160a01b03167f8be0079c531659141344cd1fd0a4f28419497f9722a3daafe3b4186f6b6457e08280a3005b3461013c57602036600319011261013c57600435610936610b09565b6103e8811161094457600655005b60405162461bcd60e51b815260206004820152600c60248201526b08ccaca40e8dede40d0d2ced60a31b6044820152606490fd5b3461013c575f36600319011261013c576007546040516001600160a01b039091168152602090f35b3461013c575f36600319011261013c576003546040516001600160a01b039091168152602090f35b3461013c575f36600319011261013c576020600654604051908152f35b3461013c575f36600319011261013c576020600554604051908152f35b3461013c575f36600319011261013c576002546001600160a01b03168152602090f35b600435906001600160a01b038216820361013c57565b90601f8019910116810190811067ffffffffffffffff821117610a5d57604052565b634e487b7160e01b5f52604160045260245ffd5b9081602091031261013c5751801515810361013c5790565b91908201809211610a9657565b634e487b7160e01b5f52601160045260245ffd5b81810292918115918404141715610a9657565b91908203918211610a9657565b3d15610b04573d9067ffffffffffffffff8211610a5d5760405191610af9601f8201601f191660200184610a3b565b82523d5f602084013e565b606090565b5f546001600160a01b03163303610b1c57565b63118cdaa760e01b5f523360045260245ffd5b600260015414610b40576002600155565b633ee5aeb560e01b5f5260045ffdfea2646970667358221220fb918bd7fe0fc2880fdf261e0ddbddaae50aa19dde4cc0d79dc20b9a5232395d64736f6c634300081c0033",
  "linkReferences": {},
  "deployedLinkReferences": {}
}