{
  "_format": "hh-sol-artifact-1",
  "contractName": "Staking",
  "sourceName": "contracts/Staking.sol",
  "abi": [
    {
      "inputs": [
        {
          "internalType": "address",
          "name": "_stakingToken",
          "type": "address"
        },
        {
          "internalType": "address",
          "name": "_accessNFT",
          "type": "address"
        }
      ],
      "stateMutability": "nonpayable",
      "type": "constructor"
    },
    {
      "inputs": [
        {
          "internalType": "address",
          "name": "owner",
          "type": "address"
        }
      ],
      "name": "OwnableInvalidOwner",
      "type": "error"
    },
    {
      "inputs": [
        {
          "internalType": "address",
          "name": "account",
          "type": "address"
        }
      ],
      "name": "OwnableUnauthorizedAccount",
      "type": "error"
    },
    {
      "inputs": [],
      "name": "ReentrancyGuardReentrantCall",
      "type": "error"
    },
    {
      "anonymous": false,
      "inputs": [
        {
          "indexed": true,
          "internalType": "address",
          "name": "previousOwner",
          "type": "address"
        },
        {
          "indexed": true,
          "internalType": "address",
          "name": "newOwner",
          "type": "address"
        }
      ],
      "name": "OwnershipTransferred",
      "type": "event"
    },
    {
      "anonymous": false,
      "inputs": [
        {
          "indexed": true,
          "internalType": "address",
          "name": "user",
          "type": "address"
        },
        {
          "indexed": false,
          "internalType": "uint256",
          "name": "amount",
          "type": "uint256"
        },
        {
          "indexed": false,
          "internalType": "uint256",
          "name": "lockPeriod",
          "type": "uint256"
        }
      ],
      "name": "Staked",
      "type": "event"
    },
    {
      "anonymous": false,
      "inputs": [
        {
          "indexed": true,
          "internalType": "address",
          "name": "user",
          "type": "address"
        },
        {
          "indexed": false,
          "internalType": "uint256",
          "name": "amount",
          "type": "uint256"
        },
        {
          "indexed": false,
          "internalType": "uint256",
          "name": "reward",
          "type": "uint256"
        }
      ],
      "name": "Withdrawn",
      "type": "event"
    },
    {
      "inputs": [],
      "name": "accessNFT",
      "outputs": [
        {
          "internalType": "contract IERC721",
          "name": "",
          "type": "address"
        }
      ],
      "stateMutability": "view",
      "type": "function"
    },
    {
      "inputs": [
        {
          "internalType": "address",
          "name": "_user",
          "type": "address"
        },
        {
          "internalType": "uint256",
          "name": "_amount",
          "type": "uint256"
        },
        {
          "internalType": "uint256",
          "name": "_lockPeriod",
          "type": "uint256"
        }
      ],
      "name": "calculateReward",
      "outputs": [
        {
          "internalType": "uint256",
          "name": "",
          "type": "uint256"
        }
      ],
      "stateMutability": "view",
      "type": "function"
    },
    {
      "inputs": [
        {
          "internalType": "address",
          "name": "_user",
          "type": "address"
        }
      ],
      "name": "getUserStakes",
      "outputs": [
        {
          "components": [
            {
              "internalType": "uint256",
              "name": "amount",
              "type": "uint256"
            },
            {
              "internalType": "uint256",
              "name": "startTime",
              "type": "uint256"
            },
            {
              "internalType": "uint256",
              "name": "lockPeriod",
              "type": "uint256"
            },
            {
              "internalType": "bool",
              "name": "active",
              "type": "bool"
            }
          ],
          "internalType": "struct Staking.StakeInfo[]",
          "name": "",
          "type": "tuple[]"
        }
      ],
      "stateMutability": "view",
      "type": "function"
    },
    {
      "inputs": [],
      "name": "owner",
      "outputs": [
        {
          "internalType": "address",
          "name": "",
          "type": "address"
        }
      ],
      "stateMutability": "view",
      "type": "function"
    },
    {
      "inputs": [],
      "name": "renounceOwnership",
      "outputs": [],
      "stateMutability": "nonpayable",
      "type": "function"
    },
    {
      "inputs": [
        {
          "internalType": "address",
          "name": "_accessNFT",
          "type": "address"
        }
      ],
      "name": "setAccessNFT",
      "outputs": [],
      "stateMutability": "nonpayable",
      "type": "function"
    },
    {
      "inputs": [
        {
          "internalType": "uint256",
          "name": "_amount",
          "type": "uint256"
        },
        {
          "internalType": "uint256",
          "name": "_lockPeriod",
          "type": "uint256"
        }
      ],
      "name": "stake",
      "outputs": [],
      "stateMutability": "nonpayable",
      "type": "function"
    },
    {
      "inputs": [],
      "name": "stakingToken",
      "outputs": [
        {
          "internalType": "contract IERC20",
          "name": "",
          "type": "address"
        }
      ],
      "stateMutability": "view",
      "type": "function"
    },
    {
      "inputs": [
        {
          "internalType": "address",
          "name": "newOwner",
          "type": "address"
        }
      ],
      "name": "transferOwnership",
      "outputs": [],
      "stateMutability": "nonpayable",
      "type": "function"
    },
    {
      "inputs": [
        {
          "internalType": "address",
          "name": "",
          "type": "address"
        },
        {
          "internalType": "uint256",
          "name": "",
          "type": "uint256"
        }
      ],
      "name": "userStakes",
      "outputs": [
        {
          "internalType": "uint256",
          "name": "amount",
          "type": "uint256"
        },
        {
          "internalType": "uint256",
          "name": "startTime",
          "type": "uint256"
        },
        {
          "internalType": "uint256",
          "name": "lockPeriod",
          "type": "uint256"
        },
        {
          "internalType": "bool",
          "name": "active",
          "type": "bool"
        }
      ],
      "stateMutability": "view",
      "type": "function"
    },
    {
      "inputs": [
        {
          "internalType": "uint256",
          "name": "_stakeIndex",
          "type": "uint256"
        }
      ],
      "name": "withdraw",
      "outputs": [],
      "stateMutability": "nonpayable",
      "type": "function"
    }
  ],
  "bytecode": "0x6080346100f257601f610b8638819003918201601f19168301916001600160401b038311848410176100f65780849260409485528339810103126100f257610052602061004b8361010a565b920161010a565b33156100df575f8054336001600160a01b0319821681178355604051949290916001600160a01b0316907f8be0079c531659141344cd1fd0a4f28419497f9722a3daafe3b4186f6b6457e09080a360018055600280546001600160a01b039283166001600160a01b03199182161790915560038054939092169216919091179055610a67908161011f8239f35b631e4fbdf760e01b5f525f60045260245ffd5b5f80fd5b634e487b7160e01b5f52604160045260245ffd5b51906001600160a01b03821682036100f25756fe60806040526004361015610011575f80fd5b5f3560e01c80632c32c360146108265780632e1a7d4d14610575578063429c9a5a14610532578063715018a6146104db57806372f702f3146104b35780637b0472f014610311578063842e2981146101e45780638da5cb5b146101bd578063b5d5b5fa14610143578063b9352c511461011b5763f2fde38b14610092575f80fd5b34610117576020366003190112610117576100ab610859565b6100b3610a0b565b6001600160a01b03168015610104575f80546001600160a01b03198116831782556001600160a01b0316907f8be0079c531659141344cd1fd0a4f28419497f9722a3daafe3b4186f6b6457e09080a3005b631e4fbdf760e01b5f525f60045260245ffd5b5f80fd5b34610117575f366003190112610117576003546040516001600160a01b039091168152602090f35b346101175760403660031901126101175761015c610859565b6001600160a01b03165f908152600460205260409020805460243591908210156101175760809161018c9161086f565b5080549060018101549060ff6003600283015492015416916040519384526020840152604083015215156060820152f35b34610117575f366003190112610117575f546040516001600160a01b039091168152602090f35b34610117576020366003190112610117576001600160a01b03610205610859565b165f52600460205260405f2080549067ffffffffffffffff82116102fd576040519161023760208260051b01846108b8565b8083526020830180925f5260205f205f915b8383106102b7578486604051918291602083019060208452518091526040830191905f5b81811061027b575050500390f35b9193509160206080600192606087518051835284810151858401526040810151604084015201511515606082015201940191019184939261026d565b600460206001926040516102ca8161089c565b8554815284860154838201526002860154604082015260ff60038701541615156060820152815201920192019190610249565b634e487b7160e01b5f52604160045260245ffd5b34610117576040366003190112610117576004356024356103306109eb565b811561047d576002546040516323b872dd60e01b81523360048201523060248201526044810184905290602090829060649082905f906001600160a01b03165af1801561047257610445575b50335f52600460205260405f206040516103958161089c565b83815260208101428152604082018481526060830193600185528054680100000000000000008110156102fd576103d19160018201815561086f565b92909261043257600393518355516001830155516002820155019051151560ff8019835416911617905560405191825260208201527f1449c6dd7851abc30abf37f57715f492010519147cc2652fbc38202c18a6ee9060403392a260018055005b634e487b7160e01b5f525f60045260245ffd5b6104669060203d60201161046b575b61045e81836108b8565b8101906109d3565b61037c565b503d610454565b6040513d5f823e3d90fd5b60405162461bcd60e51b815260206004820152600e60248201526d043616e6e6f74207374616b6520360941b6044820152606490fd5b34610117575f366003190112610117576002546040516001600160a01b039091168152602090f35b34610117575f366003190112610117576104f3610a0b565b5f80546001600160a01b0319811682556001600160a01b03167f8be0079c531659141344cd1fd0a4f28419497f9722a3daafe3b4186f6b6457e08280a3005b346101175760203660031901126101175761054b610859565b610553610a0b565b600380546001600160a01b0319166001600160a01b0392909216919091179055005b34610117576020366003190112610117576004356105916109eb565b335f52600460205260405f20548110156107f1576105ba90335f52600460205260405f2061086f565b506003810180549060ff8216156107b8576001830154926105e0600282015480956109c6565b4210610781576105f390549384336108da565b60ff1990921690556002546040516370a0823160e01b81523060048201526001600160a01b039190911690602081602481855afa908115610472575f9161074f575b5061064083856109c6565b116106f657506002545f9060209061068f906001600160a01b031661066585876109c6565b60405163a9059cbb60e01b8152336004820152602481019190915293849283919082906044820190565b03925af18015610472576106d7575b505b60405191825260208201527f92ccf450a286a957af52509bc1c9939d1a6a481783e142e41e2499f0bb66ebc660403392a260018055005b6106ef9060203d60201161046b5761045e81836108b8565b508261069e565b60405163a9059cbb60e01b81523360048201526024810184905290602090829060449082905f905af1801561047257610730575b506106a0565b6107489060203d60201161046b5761045e81836108b8565b508261072a565b90506020813d602011610779575b8161076a602093836108b8565b81010312610117575184610635565b3d915061075d565b60405162461bcd60e51b815260206004820152600f60248201526e14dd185ad9481a5cc81b1bd8dad959608a1b6044820152606490fd5b60405162461bcd60e51b815260206004820152601160248201527020b63932b0b23c903bb4ba34323930bbb760791b6044820152606490fd5b60405162461bcd60e51b815260206004820152600d60248201526c092dcecc2d8d2c840d2dcc8caf609b1b6044820152606490fd5b34610117576060366003190112610117576020610851610844610859565b60443590602435906108da565b604051908152f35b600435906001600160a01b038216820361011757565b8054821015610888575f5260205f209060021b01905f90565b634e487b7160e01b5f52603260045260245ffd5b6080810190811067ffffffffffffffff8211176102fd57604052565b90601f8019910116810190811067ffffffffffffffff8211176102fd57604052565b9190600a810290808204600a148115171561093d578202600a0291811591830414171561093d5763bbf81e0090049060018060a01b03600354168015159182610951575b50506109275790565b8060011b908082046002149015171561093d5790565b634e487b7160e01b5f52601160045260245ffd5b6040516370a0823160e01b81526001600160a01b0390911660048201529150602090829060249082905afa908115610472575f91610994575b5015155f8061091e565b90506020813d6020116109be575b816109af602093836108b8565b8101031261011757515f61098a565b3d91506109a2565b9190820180921161093d57565b90816020910312610117575180151581036101175790565b6002600154146109fc576002600155565b633ee5aeb560e01b5f5260045ffd5b5f546001600160a01b03163303610a1e57565b63118cdaa760e01b5f523360045260245ffdfea2646970667358221220357944f418c1ffc93eaa461dad14a2c66eb5cb118ee099ea069cd053e8084a0c64736f6c634300081c0033",
  "linkReferences": {},
  "deployedLinkReferences": {}
}