{
  "_format": "hh-sol-artifact-1",
  "contractName": "StrategyNFT",
  "sourceName": "contracts/StrategyNFT.sol",
  "abi": [
    {
      "inputs": [],
      "stateMutability": "nonpayable",
      "type": "constructor"
    },
    {
      "inputs": [
        {
          "internalType": "address",
          "name": "sender",
          "type": "address"
        },
        {
          "internalType": "uint256",
          "name": "tokenId",
          "type": "uint256"
        },
        {
          "internalType": "address",
          "name": "owner",
          "type": "address"
        }
      ],
      "name": "ERC721IncorrectOwner",
      "type": "error"
    },
    {
      "inputs": [
        {
          "internalType": "address",
          "name": "operator",
          "type": "address"
        },
        {
          "internalType": "uint256",
          "name": "tokenId",
          "type": "uint256"
        }
      ],
      "name": "ERC721InsufficientApproval",
      "type": "error"
    },
    {
      "inputs": [
        {
          "internalType": "address",
          "name": "approver",
          "type": "address"
        }
      ],
      "name": "ERC721InvalidApprover",
      "type": "error"
    },
    {
      "inputs": [
        {
          "internalType": "address",
          "name": "operator",
          "type": "address"
        }
      ],
      "name": "ERC721InvalidOperator",
      "type": "error"
    },
    {
      "inputs": [
        {
          "internalType": "address",
          "name": "owner",
          "type": "address"
        }
      ],
      "name": "ERC721InvalidOwner",
      "type": "error"
    },
    {
      "inputs": [
        {
          "internalType": "address",
          "name": "receiver",
          "type": "address"
        }
      ],
      "name": "ERC721InvalidReceiver",
      "type": "error"
    },
    {
      "inputs": [
        {
          "internalType": "address",
          "name": "sender",
          "type": "address"
        }
      ],
      "name": "ERC721InvalidSender",
      "type": "error"
    },
    {
      "inputs": [
        {
          "internalType": "uint256",
          "name": "tokenId",
          "type": "uint256"
        }
      ],
      "name": "ERC721NonexistentToken",
      "type": "error"
    },
    {
      "inputs": [
        {
          "internalType": "address",
          "name": "owner",
          "type": "address"
        }
      ],
      "name": "OwnableInvalidOwner",
      "type": "error"
    },
    {
      "inputs": [
        {
          "internalType": "address",
          "name": "account",
          "type": "address"
        }
      ],
      "name": "OwnableUnauthorizedAccount",
      "type": "error"
    },
    {
      "anonymous": false,
      "inputs": [
        {
          "indexed": true,
          "internalType": "address",
          "name": "owner",
          "type": "address"
        },
        {
          "indexed": true,
          "internalType": "address",
          "name": "approved",
          "type": "address"
        },
        {
          "indexed": true,
          "internalType": "uint256",
          "name": "tokenId",
          "type": "uint256"
        }
      ],
      "name": "Approval",
      "type": "event"
    },
    {
      "anonymous": false,
      "inputs": [
        {
          "indexed": true,
          "internalType": "address",
          "name": "owner",
          "type": "address"
        },
        {
          "indexed": true,
          "internalType": "address",
          "name": "operator",
          "type": "address"
        },
        {
          "indexed": false,
          "internalType": "bool",
          "name": "approved",
          "type": "bool"
        }
      ],
      "name": "ApprovalForAll",
      "type": "event"
    },
    {
      "anonymous": false,
      "inputs": [
        {
          "indexed": true,
          "internalType": "address",
          "name": "previousOwner",
          "type": "address"
        },
        {
          "indexed": true,
          "internalType": "address",
          "name": "newOwner",
          "type": "address"
        }
      ],
      "name": "OwnershipTransferred",
      "type": "event"
    },
    {
      "anonymous": false,
      "inputs": [
        {
          "indexed": true,
          "internalType": "uint256",
          "name": "tokenId",
          "type": "uint256"
        },
        {
          "indexed": true,
          "internalType": "address",
          "name": "creator",
          "type": "address"
        },
        {
          "indexed": false,
          "internalType": "string",
          "name": "name",
          "type": "string"
        }
      ],
      "name": "StrategyMinted",
      "type": "event"
    },
    {
      "anonymous": false,
      "inputs": [
        {
          "indexed": true,
          "internalType": "address",
          "name": "from",
          "type": "address"
        },
        {
          "indexed": true,
          "internalType": "address",
          "name": "to",
          "type": "address"
        },
        {
          "indexed": true,
          "internalType": "uint256",
          "name": "tokenId",
          "type": "uint256"
        }
      ],
      "name": "Transfer",
      "type": "event"
    },
    {
      "inputs": [
        {
          "internalType": "address",
          "name": "to",
          "type": "address"
        },
        {
          "internalType": "uint256",
          "name": "tokenId",
          "type": "uint256"
        }
      ],
      "name": "approve",
      "outputs": [],
      "stateMutability": "nonpayable",
      "type": "function"
    },
    {
      "inputs": [
        {
          "internalType": "address",
          "name": "owner",
          "type": "address"
        }
      ],
      "name": "balanceOf",
      "outputs": [
        {
          "internalType": "uint256",
          "name": "",
          "type": "uint256"
        }
      ],
      "stateMutability": "view",
      "type": "function"
    },
    {
      "inputs": [
        {
          "internalType": "uint256",
          "name": "tokenId",
          "type": "uint256"
        }
      ],
      "name": "getApproved",
      "outputs": [
        {
          "internalType": "address",
          "name": "",
          "type": "address"
        }
      ],
      "stateMutability": "view",
      "type": "function"
    },
    {
      "inputs": [
        {
          "internalType": "uint256",
          "name": "tokenId",
          "type": "uint256"
        }
      ],
      "name": "getStrategy",
      "outputs": [
        {
          "components": [
            {
              "internalType": "string",
              "name": "name",
              "type": "string"
            },
            {
              "internalType": "string",
              "name": "description",
              "type": "string"
            },
            {
              "internalType": "uint256",
              "name": "riskLevel",
              "type": "uint256"
            },
            {
              "internalType": "address",
              "name": "creator",
              "type": "address"
            }
          ],
          "internalType": "struct StrategyNFT.StrategyMetadata",
          "name": "",
          "type": "tuple"
        }
      ],
      "stateMutability": "view",
      "type": "function"
    },
    {
      "inputs": [
        {
          "internalType": "address",
          "name": "owner",
          "type": "address"
        },
        {
          "internalType": "address",
          "name": "operator",
          "type": "address"
        }
      ],
      "name": "isApprovedForAll",
      "outputs": [
        {
          "internalType": "bool",
          "name": "",
          "type": "bool"
        }
      ],
      "stateMutability": "view",
      "type": "function"
    },
    {
      "inputs": [
        {
          "internalType": "address",
          "name": "to",
          "type": "address"
        },
        {
          "internalType": "string",
          "name": "name",
          "type": "string"
        },
        {
          "internalType": "string",
          "name": "description",
          "type": "string"
        },
        {
          "internalType": "uint256",
          "name": "riskLevel",
          "type": "uint256"
        }
      ],
      "name": "mintStrategy",
      "outputs": [
        {
          "internalType": "uint256",
          "name": "",
          "type": "uint256"
        }
      ],
      "stateMutability": "nonpayable",
      "type": "function"
    },
    {
      "inputs": [],
      "name": "name",
      "outputs": [
        {
          "internalType": "string",
          "name": "",
          "type": "string"
        }
      ],
      "stateMutability": "view",
      "type": "function"
    },
    {
      "inputs": [],
      "name": "owner",
      "outputs": [
        {
          "internalType": "address",
          "name": "",
          "type": "address"
        }
      ],
      "stateMutability": "view",
      "type": "function"
    },
    {
      "inputs": [
        {
          "internalType": "uint256",
          "name": "tokenId",
          "type": "uint256"
        }
      ],
      "name": "ownerOf",
      "outputs": [
        {
          "internalType": "address",
          "name": "",
          "type": "address"
        }
      ],
      "stateMutability": "view",
      "type": "function"
    },
    {
      "inputs": [],
      "name": "renounceOwnership",
      "outputs": [],
      "stateMutability": "nonpayable",
      "type": "function"
    },
    {
      "inputs": [
        {
          "internalType": "address",
          "name": "from",
          "type": "address"
        },
        {
          "internalType": "address",
          "name": "to",
          "type": "address"
        },
        {
          "internalType": "uint256",
          "name": "tokenId",
          "type": "uint256"
        }
      ],
      "name": "safeTransferFrom",
      "outputs": [],
      "stateMutability": "nonpayable",
      "type": "function"
    },
    {
      "inputs": [
        {
          "internalType": "address",
          "name": "from",
          "type": "address"
        },
        {
          "internalType": "address",
          "name": "to",
          "type": "address"
        },
        {
          "internalType": "uint256",
          "name": "tokenId",
          "type": "uint256"
        },
        {
          "internalType": "bytes",
          "name": "data",
          "type": "bytes"
        }
      ],
      "name": "safeTransferFrom",
      "outputs": [],
      "stateMutability": "nonpayable",
      "type": "function"
    },
    {
      "inputs": [
        {
          "internalType": "address",
          "name": "operator",
          "type": "address"
        },
        {
          "internalType": "bool",
          "name": "approved",
          "type": "bool"
        }
      ],
      "name": "setApprovalForAll",
      "outputs": [],
      "stateMutability": "nonpayable",
      "type": "function"
    },
    {
      "inputs": [
        {
          "internalType": "uint256",
          "name": "",
          "type": "uint256"
        }
      ],
      "name": "strategies",
      "outputs": [
        {
          "internalType": "string",
          "name": "name",
          "type": "string"
        },
        {
          "internalType": "string",
          "name": "description",
          "type": "string"
        },
        {
          "internalType": "uint256",
          "name": "riskLevel",
          "type": "uint256"
        },
        {
          "internalType": "address",
          "name": "creator",
          "type": "address"
        }
      ],
      "stateMutability": "view",
      "type": "function"
    },
    {
      "inputs": [
        {
          "internalType": "bytes4",
          "name": "interfaceId",
          "type": "bytes4"
        }
      ],
      "name": "supportsInterface",
      "outputs": [
        {
          "internalType": "bool",
          "name": "",
          "type": "bool"
        }
      ],
      "stateMutability": "view",
      "type": "function"
    },
    {
      "inputs": [],
      "name": "symbol",
      "outputs": [
        {
          "internalType": "string",
          "name": "",
          "type": "string"
        }
      ],
      "stateMutability": "view",
      "type": "function"
    },
    {
      "inputs": [
        {
          "internalType": "uint256",
          "name": "tokenId",
          "type": "uint256"
        }
      ],
      "name": "tokenURI",
      "outputs": [
        {
          "internalType": "string",
          "name": "",
          "type": "string"
        }
      ],
      "stateMutability": "view",
      "type": "function"
    },
    {
      "inputs": [
        {
          "internalType": "address",
          "name": "from",
          "type": "address"
        },
        {
          "internalType": "address",
          "name": "to",
          "type": "address"
        },
        {
          "internalType": "uint256",
          "name": "tokenId",
          "type": "uint256"
        }
      ],
      "name": "transferFrom",
      "outputs": [],
      "stateMutability": "nonpayable",
      "type": "function"
    },
    {
      "inputs": [
        {
          "internalType": "address",
          "name": "newOwner",
          "type": "address"
        }
      ],
      "name": "transferOwnership",
      "outputs": [],
      "stateMutability": "nonpayable",
      "type": "function"
    }
  ],
  "bytecode": "0x60806040523461036f57604080519081016001600160401b03811182821017610285576040908152600e82526d4e6578757320537472617465677960901b602083015280519081016001600160401b038111828210176102855760405260038152624e585360e81b602082015281516001600160401b038111610285575f54600181811c91168015610365575b602082101461026757601f8111610303575b50602092601f82116001146102a457928192935f92610299575b50508160011b915f199060031b1c1916175f555b80516001600160401b03811161028557600154600181811c9116801561027b575b602082101461026757601f8111610204575b50602091601f82116001146101a4579181925f92610199575b50508160011b915f199060031b1c1916176001555b33156101865760068054336001600160a01b03198216811790925560405191906001600160a01b03167f8be0079c531659141344cd1fd0a4f28419497f9722a3daafe3b4186f6b6457e05f80a36113f390816103748239f35b631e4fbdf760e01b5f525f60045260245ffd5b015190505f80610118565b601f1982169260015f52805f20915f5b8581106101ec575083600195106101d4575b505050811b0160015561012d565b01515f1960f88460031b161c191690555f80806101c6565b919260206001819286850151815501940192016101b4565b60015f527fb10e2d527612073b26eecdfd717e6a320cf44b4afac2b0732d9fcbe2b7fa0cf6601f830160051c8101916020841061025d575b601f0160051c01905b81811061025257506100ff565b5f8155600101610245565b909150819061023c565b634e487b7160e01b5f52602260045260245ffd5b90607f16906100ed565b634e487b7160e01b5f52604160045260245ffd5b015190505f806100b8565b601f198216935f8052805f20915f5b8681106102eb57508360019596106102d3575b505050811b015f556100cc565b01515f1960f88460031b161c191690555f80806102c6565b919260206001819286850151815501940192016102b3565b5f80527f290decd9548b62a8d60345a988386fc84ba6bc95484008f6362f93160ef3e563601f830160051c8101916020841061035b575b601f0160051c01905b818110610350575061009e565b5f8155600101610343565b909150819061033a565b90607f169061008c565b5f80fdfe6080806040526004361015610012575f80fd5b5f905f3560e01c90816301ffc9a714610e245750806306fdde0314610d82578063081812fc14610d46578063095ea7b314610c5c57806323b872dd14610c4557806342842e0e14610c165780636352211e14610be657806370a0823114610b95578063715018a614610b3a5780638da5cb5b14610b1257806395d89b4114610a34578063a22cb46514610999578063a5e1ecc9146103f8578063b88d4fde1461038a578063c87b56dd1461032d578063cfc0cc3414610253578063d574ea3d146101d2578063e985e9c51461017a5763f2fde38b146100ef575f80fd5b3461017757602036600319011261017757610108610eb3565b610110611260565b6001600160a01b0316801561016357600680546001600160a01b0319811683179091556001600160a01b03167f8be0079c531659141344cd1fd0a4f28419497f9722a3daafe3b4186f6b6457e05f80a380f35b631e4fbdf760e01b82526004829052602482fd5b80fd5b5034610177576040366003190112610177576040610196610eb3565b9161019f610ec9565b9260018060a01b031681526005602052209060018060a01b03165f52602052602060ff60405f2054166040519015158152f35b50346101775760203660031901126101775760406102369160043581526008602052206101fe81610fff565b9061020b60018201610fff565b610244600283015492600360018060a01b039101541691604051958695608087526080870190610e8f565b908582036020870152610e8f565b91604084015260608301520390f35b503461017757602036600319011261017757604081610300926060835161027981610f19565b818152816020820152828582015201526004358152600860205220604051906102a182610f19565b6102aa81610fff565b82526102b860018201610fff565b6020830190815261031360028301549260408501938452600360018060a01b0391015416916060850192835260405195869560208752516080602088015260a0870190610e8f565b9051858203601f19016040870152610e8f565b91516060840152516001600160a01b031660808301520390f35b346103865760203660031901126103865761034960043561122c565b505f604051610359602082610f35565b5261038260405161036b602082610f35565b5f8152604051918291602083526020830190610e8f565b0390f35b5f80fd5b34610386576080366003190112610386576103a3610eb3565b6103ab610ec9565b906044356064359267ffffffffffffffff84116103865736602385011215610386576103e46103f6943690602481600401359101610f73565b926103f083838361109f565b33611287565b005b3461038657608036600319011261038657610411610eb3565b60243567ffffffffffffffff811161038657610431903690600401610fa9565b60443567ffffffffffffffff811161038657610451903690600401610fa9565b9161045a611260565b600754905f198214610985576001820160075560209260405161047d8582610f35565b5f81526001600160a01b038316928315610972575f8581526002875260409020546001600160a01b03168015159081610941575b855f526003885260405f2060018154019055865f526002885260405f20866bffffffffffffffffffffffff60a01b8254161790558686827fddf252ad1be2c89b69c2b068fc378daa952ba7f163c4a11628f55a4df523b3ef5f80a45061092e573b61081a575b5060405161052481610f19565b8181528481019586526040810160643581526060820190848252855f526008875260405f20925180519067ffffffffffffffff821161074a5781906105698654610fc7565b601f81116107cc575b508990601f8311600114610769575f9261075e575b50508160011b915f199060031b1c19161783555b60018301975197885167ffffffffffffffff811161074a576105bd8254610fc7565b99601f8b11610707575b88999a505f989798508a90601f83116001146106755792827f63b7ea3e6e865c8a7a3978a9dadcef4cdeb0c37214f2905e62a775fa41234a4c98969361065f9896936003965f9261066a575b50508160011b915f1990871b1c19161790555b51600284015551910180546001600160a01b0319166001600160a01b039290921691909117905560405187815291829188830190610e8f565b0390a3604051908152f35b015190508e80610613565b5f8481528c8120929190601f198516908e5b8282106106ed5750509361065f98969360039693600193837f63b7ea3e6e865c8a7a3978a9dadcef4cdeb0c37214f2905e62a775fa41234a4c9d9b98106106d6575b505050811b019055610626565b01515f1983891b60f8161c191690558e80806106c9565b8484015186558e9c5060019095019493840193018e610687565b825f52895f20601f830160051c81019b8b8410610740575b601f0160051c019a5b8b811061073557506105c7565b5f8155600101610728565b909b508b9061071f565b634e487b7160e01b5f52604160045260245ffd5b015190508a80610587565b5f8781528b81209350601f198516905b8c8282106107b657505090846001959493921061079e575b505050811b01835561059b565b01515f1960f88460031b161c191690558a8080610791565b6001859682939686015181550195019301610779565b909150855f52895f20601f840160051c8101918b8510610810575b90601f859493920160051c01905b8181106108025750610572565b5f81558493506001016107f5565b90915081906107e7565b84610857916040979594975180938192630a85bd0160e11b83523360048401525f6024840152876044840152608060648401526084830190610e8f565b03815f8a5af15f91816108ee575b506108ba5785853d156108b2573d9061087d82610f57565b9161088b6040519384610f35565b82523d5f8284013e5b815191826108af5783633250574960e11b5f5260045260245ffd5b01fd5b606090610894565b929491926001600160e01b03191663757a42ff60e11b016108db5785610517565b50633250574960e11b5f5260045260245ffd5b9091508581813d8311610927575b6109068183610f35565b8101031261038657516001600160e01b031981168103610386579087610865565b503d6108fc565b6339e3563760e11b5f525f60045260245ffd5b5f8781526004602052604080822080546001600160a01b031916905582825260038a52902080545f190190556104b1565b633250574960e11b5f525f60045260245ffd5b634e487b7160e01b5f52601160045260245ffd5b34610386576040366003190112610386576109b2610eb3565b60243590811515809203610386576001600160a01b0316908115610a2157335f52600560205260405f20825f5260205260405f2060ff1981541660ff83161790556040519081527f17307eab39ab6107e8899845ad3d59bd9653f200f220920489ca2b5937696c3160203392a3005b50630b61174360e31b5f5260045260245ffd5b34610386575f366003190112610386576040515f600154610a5481610fc7565b8084529060018116908115610aee5750600114610a90575b61038283610a7c81850382610f35565b604051918291602083526020830190610e8f565b60015f9081527fb10e2d527612073b26eecdfd717e6a320cf44b4afac2b0732d9fcbe2b7fa0cf6939250905b808210610ad457509091508101602001610a7c610a6c565b919260018160209254838588010152019101909291610abc565b60ff191660208086019190915291151560051b84019091019150610a7c9050610a6c565b34610386575f366003190112610386576006546040516001600160a01b039091168152602090f35b34610386575f36600319011261038657610b52611260565b600680546001600160a01b031981169091555f906001600160a01b03167f8be0079c531659141344cd1fd0a4f28419497f9722a3daafe3b4186f6b6457e08280a3005b34610386576020366003190112610386576001600160a01b03610bb6610eb3565b168015610bd3575f526003602052602060405f2054604051908152f35b6322718ad960e21b5f525f60045260245ffd5b34610386576020366003190112610386576020610c0460043561122c565b6040516001600160a01b039091168152f35b34610386576103f6610c2736610edf565b9060405192610c37602085610f35565b5f84526103f083838361109f565b34610386576103f6610c5636610edf565b9161109f565b3461038657604036600319011261038657610c75610eb3565b602435610c818161122c565b33151580610d33575b80610d06575b610cf35781906001600160a01b0384811691167f8c5be1e5ebec7d5bd14f71427d1e84f3dd0314c0f7b2291e5b200ac8c7c3b9255f80a45f90815260046020526040902080546001600160a01b0319166001600160a01b03909216919091179055005b63a9fbf51f60e01b5f523360045260245ffd5b506001600160a01b0381165f90815260056020908152604080832033845290915290205460ff1615610c90565b506001600160a01b038116331415610c8a565b3461038657602036600319011261038657600435610d638161122c565b505f526004602052602060018060a01b0360405f205416604051908152f35b34610386575f366003190112610386576040515f5f54610da181610fc7565b8084529060018116908115610aee5750600114610dc85761038283610a7c81850382610f35565b5f8080527f290decd9548b62a8d60345a988386fc84ba6bc95484008f6362f93160ef3e563939250905b808210610e0a57509091508101602001610a7c610a6c565b919260018160209254838588010152019101909291610df2565b34610386576020366003190112610386576004359063ffffffff60e01b8216809203610386576020916380ac58cd60e01b8114908115610e7e575b8115610e6d575b5015158152f35b6301ffc9a760e01b14905083610e66565b635b5e139f60e01b81149150610e5f565b805180835260209291819084018484015e5f828201840152601f01601f1916010190565b600435906001600160a01b038216820361038657565b602435906001600160a01b038216820361038657565b6060906003190112610386576004356001600160a01b038116810361038657906024356001600160a01b0381168103610386579060443590565b6080810190811067ffffffffffffffff82111761074a57604052565b90601f8019910116810190811067ffffffffffffffff82111761074a57604052565b67ffffffffffffffff811161074a57601f01601f191660200190565b929192610f7f82610f57565b91610f8d6040519384610f35565b829481845281830111610386578281602093845f960137010152565b9080601f8301121561038657816020610fc493359101610f73565b90565b90600182811c92168015610ff5575b6020831014610fe157565b634e487b7160e01b5f52602260045260245ffd5b91607f1691610fd6565b9060405191825f82549261101284610fc7565b808452936001811690811561107d5750600114611039575b5061103792500383610f35565b565b90505f9291925260205f20905f915b818310611061575050906020611037928201015f61102a565b6020919350806001915483858901015201910190918492611048565b90506020925061103794915060ff191682840152151560051b8201015f61102a565b6001600160a01b0390911691908215610972575f828152600260205260409020546001600160a01b031692829033151580611197575b5084611164575b805f52600360205260405f2060018154019055815f52600260205260405f20816bffffffffffffffffffffffff60a01b825416179055847fddf252ad1be2c89b69c2b068fc378daa952ba7f163c4a11628f55a4df523b3ef5f80a46001600160a01b031680830361114c57505050565b6364283d7b60e01b5f5260045260245260445260645ffd5b5f82815260046020526040902080546001600160a01b0319169055845f52600360205260405f205f1981540190556110dc565b909150806111db575b156111ad5782905f6110d5565b82846111c557637e27328960e01b5f5260045260245ffd5b63177e802f60e01b5f523360045260245260445ffd5b50338414801561120a575b806111a057505f838152600460205260409020546001600160a01b031633146111a0565b505f84815260056020908152604080832033845290915290205460ff166111e6565b5f818152600260205260409020546001600160a01b031690811561124e575090565b637e27328960e01b5f5260045260245ffd5b6006546001600160a01b0316330361127457565b63118cdaa760e01b5f523360045260245ffd5b823b611295575b5050505050565b604051630a85bd0160e11b81526001600160a01b0391821660048201529181166024830152604482019390935260806064820152911691602090829081906112e1906084830190610e8f565b03815f865af15f9181611378575b5061134457503d1561133d573d61130581610f57565b906113136040519283610f35565b81523d5f602083013e5b805190816113385782633250574960e11b5f5260045260245ffd5b602001fd5b606061131d565b6001600160e01b03191663757a42ff60e11b0161136657505f8080808061128e565b633250574960e11b5f5260045260245ffd5b9091506020813d6020116113b5575b8161139460209383610f35565b8101031261038657516001600160e01b03198116810361038657905f6112ef565b3d915061138756fea2646970667358221220439458c3d819556e1a61da465e9b0ac4de18d90922a73ebd3d3d064304e331f864736f6c634300081c0033",
  "linkReferences": {},
  "deployedLinkReferences": {}
}