{
  "_format": "hh-sol-artifact-1",
  "contractName": "TradingPool",
  "sourceName": "contracts/TradingPool.sol",
  "abi": [
    {
      "inputs": [
        {
          "internalType": "address",
          "name": "_asset",
          "type": "address"
        },
        {
          "internalType": "address",
          "name": "_strategyExecutor",
          "type": "address"
        }
      ],
      "stateMutability": "nonpayable",
      "type": "constructor"
    },
    {
      "inputs": [
        {
          "internalType": "address",
          "name": "owner",
          "type": "address"
        }
      ],
      "name": "OwnableInvalidOwner",
      "type": "error"
    },
    {
      "inputs": [
        {
          "internalType": "address",
          "name": "account",
          "type": "address"
        }
      ],
      "name": "OwnableUnauthorizedAccount",
      "type": "error"
    },
    {
      "inputs": [],
      "name": "ReentrancyGuardReentrantCall",
      "type": "error"
    },
    {
      "anonymous": false,
      "inputs": [
        {
          "indexed": true,
          "internalType": "address",
          "name": "user",
          "type": "address"
        },
        {
          "indexed": false,
          "internalType": "uint256",
          "name": "amount",
          "type": "uint256"
        }
      ],
      "name": "Deposit",
      "type": "event"
    },
    {
      "anonymous": false,
      "inputs": [
        {
          "indexed": true,
          "internalType": "address",
          "name": "previousOwner",
          "type": "address"
        },
        {
          "indexed": true,
          "internalType": "address",
          "name": "newOwner",
          "type": "address"
        }
      ],
      "name": "OwnershipTransferred",
      "type": "event"
    },
    {
      "anonymous": false,
      "inputs": [
        {
          "indexed": false,
          "internalType": "uint256",
          "name": "profit",
          "type": "uint256"
        },
        {
          "indexed": false,
          "internalType": "uint256",
          "name": "fee",
          "type": "uint256"
        }
      ],
      "name": "ProfitReported",
      "type": "event"
    },
    {
      "anonymous": false,
      "inputs": [
        {
          "indexed": true,
          "internalType": "address",
          "name": "user",
          "type": "address"
        },
        {
          "indexed": false,
          "internalType": "uint256",
          "name": "amount",
          "type": "uint256"
        }
      ],
      "name": "Withdraw",
      "type": "event"
    },
    {
      "inputs": [],
      "name": "asset",
      "outputs": [
        {
          "internalType": "contract IERC20",
          "name": "",
          "type": "address"
        }
      ],
      "stateMutability": "view",
      "type": "function"
    },
    {
      "inputs": [
        {
          "internalType": "address",
          "name": "",
          "type": "address"
        }
      ],
      "name": "balances",
      "outputs": [
        {
          "internalType": "uint256",
          "name": "",
          "type": "uint256"
        }
      ],
      "stateMutability": "view",
      "type": "function"
    },
    {
      "inputs": [
        {
          "internalType": "uint256",
          "name": "amount",
          "type": "uint256"
        }
      ],
      "name": "deposit",
      "outputs": [],
      "stateMutability": "nonpayable",
      "type": "function"
    },
    {
      "inputs": [],
      "name": "owner",
      "outputs": [
        {
          "internalType": "address",
          "name": "",
          "type": "address"
        }
      ],
      "stateMutability": "view",
      "type": "function"
    },
    {
      "inputs": [],
      "name": "performanceFeeBps",
      "outputs": [
        {
          "internalType": "uint256",
          "name": "",
          "type": "uint256"
        }
      ],
      "stateMutability": "view",
      "type": "function"
    },
    {
      "inputs": [],
      "name": "renounceOwnership",
      "outputs": [],
      "stateMutability": "nonpayable",
      "type": "function"
    },
    {
      "inputs": [
        {
          "internalType": "uint256",
          "name": "profit",
          "type": "uint256"
        }
      ],
      "name": "reportProfit",
      "outputs": [],
      "stateMutability": "nonpayable",
      "type": "function"
    },
    {
      "inputs": [
        {
          "internalType": "address",
          "name": "_executor",
          "type": "address"
        }
      ],
      "name": "setExecutor",
      "outputs": [],
      "stateMutability": "nonpayable",
      "type": "function"
    },
    {
      "inputs": [],
      "name": "strategyExecutor",
      "outputs": [
        {
          "internalType": "address",
          "name": "",
          "type": "address"
        }
      ],
      "stateMutability": "view",
      "type": "function"
    },
    {
      "inputs": [],
      "name": "totalDeposits",
      "outputs": [
        {
          "internalType": "uint256",
          "name": "",
          "type": "uint256"
        }
      ],
      "stateMutability": "view",
      "type": "function"
    },
    {
      "inputs": [
        {
          "internalType": "address",
          "name": "newOwner",
          "type": "address"
        }
      ],
      "name": "transferOwnership",
      "outputs": [],
      "stateMutability": "nonpayable",
      "type": "function"
    },
    {
      "inputs": [
        {
          "internalType": "uint256",
          "name": "amount",
          "type": "uint256"
        }
      ],
      "name": "withdraw",
      "outputs": [],
      "stateMutability": "nonpayable",
      "type": "function"
    }
  ],
  "bytecode": "0x6080346100f857601f61083938819003918201601f19168301916001600160401b038311848410176100fc5780849260409485528339810103126100f857610052602061004b83610110565b9201610110565b33156100e5575f8054336001600160a01b0319821681178355604051949290916001600160a01b0316907f8be0079c531659141344cd1fd0a4f28419497f9722a3daafe3b4186f6b6457e09080a3600180556107d0600655600280546001600160a01b039283166001600160a01b0319918216179091556005805493909216921691909117905561071490816101258239f35b631e4fbdf760e01b5f525f60045260245ffd5b5f80fd5b634e487b7160e01b5f52604160045260245ffd5b51906001600160a01b03821682036100f85756fe60806040526004361015610011575f80fd5b5f3560e01c80631c3c0ea8146105e657806327e235e3146105aa5780632e1a7d4d1461048757806338d52e0f1461045f5780635731d3b714610437578063715018a6146103e05780637d882097146103c35780638da5cb5b1461039c578063b4a0a31f1461027c578063b6b55f2514610147578063b9d4e8791461012a5763f2fde38b1461009d575f80fd5b34610126576020366003190112610126576004356001600160a01b03811690819003610126576100cb610698565b8015610113575f80546001600160a01b03198116831782556001600160a01b0316907f8be0079c531659141344cd1fd0a4f28419497f9722a3daafe3b4186f6b6457e09080a3005b631e4fbdf760e01b5f525f60045260245ffd5b5f80fd5b34610126575f366003190112610126576020600654604051908152f35b34610126576020366003190112610126576004356101636106be565b8015610242576002546040516323b872dd60e01b81523360048201523060248201526044810183905290602090829060649082905f906001600160a01b03165af180156102375761020a575b50335f52600460205260405f206101c782825461068b565b90556101d58160035461068b565b6003556040519081527fe1fffcc4923d04b559f4d29a8bfc6cda04eb5b0d3c460751c2402c5c5cc9109c60203392a260018055005b61022b9060203d602011610230575b610223818361063d565b810190610673565b6101af565b503d610219565b6040513d5f823e3d90fd5b60405162461bcd60e51b81526020600482015260126024820152710416d6f756e74206d757374206265203e20360741b6044820152606490fd5b3461012657602036600319011261012657600554600435906001600160a01b031633036103675760065490818102918183041481151715610353576002545f805460405163a9059cbb60e01b81526001600160a01b0391821660048201526127109095046024860181905293926020928692604492849291165af1918215610237577ffcfbfd1d7fecbea7809bda42bd54ffa877192d8f5170375720ba7197c80181bc93604093610336575b5082519182526020820152a1005b61034e9060203d60201161023057610223818361063d565b610328565b634e487b7160e01b5f52601160045260245ffd5b60405162461bcd60e51b815260206004820152600d60248201526c27b7363c9032bc32b1baba37b960991b6044820152606490fd5b34610126575f366003190112610126575f546040516001600160a01b039091168152602090f35b34610126575f366003190112610126576020600354604051908152f35b34610126575f366003190112610126576103f8610698565b5f80546001600160a01b0319811682556001600160a01b03167f8be0079c531659141344cd1fd0a4f28419497f9722a3daafe3b4186f6b6457e08280a3005b34610126575f366003190112610126576005546040516001600160a01b039091168152602090f35b34610126575f366003190112610126576002546040516001600160a01b039091168152602090f35b34610126576020366003190112610126576004356104a36106be565b335f5260046020528060405f20541061056e57335f52600460205260405f206104cd828254610630565b90556104db81600354610630565b60035560025460405163a9059cbb60e01b81523360048201526024810183905290602090829060449082905f906001600160a01b03165af1801561023757610551575b506040519081527f884edad9ce6fa2440d8a54cc123490eb96d2768479d49ff9c7366125a942436460203392a260018055005b6105699060203d60201161023057610223818361063d565b61051e565b60405162461bcd60e51b8152602060048201526014602482015273496e73756666696369656e742062616c616e636560601b6044820152606490fd5b34610126576020366003190112610126576004356001600160a01b03811690819003610126575f526004602052602060405f2054604051908152f35b34610126576020366003190112610126576004356001600160a01b0381169081900361012657610614610698565b6bffffffffffffffffffffffff60a01b60055416176005555f80f35b9190820391821161035357565b90601f8019910116810190811067ffffffffffffffff82111761065f57604052565b634e487b7160e01b5f52604160045260245ffd5b90816020910312610126575180151581036101265790565b9190820180921161035357565b5f546001600160a01b031633036106ab57565b63118cdaa760e01b5f523360045260245ffd5b6002600154146106cf576002600155565b633ee5aeb560e01b5f5260045ffdfea26469706673582212207b4b0823f05065e0cf4fd129df740f779810f0450c7bd81ccbc1fd206275bc6964736f6c634300081c0033",
  "linkReferences": {},
  "deployedLinkReferences": {}
}